:100000000C9463000C948B000C948B000C948B006C
:100010000C948B000C948B000C948B000C948B0034
:100020000C948B000C948B000C948B000C948B0024
:100030000C948B000C948B000C948B000C948B0014
:100040000C940D030C948B000C94DB020C94B50201
:100050000C948B000C948B000C948B000C948B00F4
:100060000C948B000C948B000000000023002600F1
:10007000290000000008000201000003040700003E
:1000800000000000000000000000250028002B00F8
:1000900000000000240027002A00040404040404D3
:1000A0000404020202020202030303030303010227
:1000B00004081020408001020408102001020408F6
:1000C0001020BA0AB20A11241FBECFEFD8E0DEBF5B
:1000D000CDBF22E0A2E9B1E001C01D92AD39B20767
:1000E000E1F711E0A0E0B1E0EEE7FCE102C005902D
:1000F0000D92A239B107D9F710E0C2E6D0E004C0F2
:100100002197FE010E94E50BC136D107C9F70E9475
:1001100036060C94320E0C940000FC01918D828DF9
:10012000981761F0828DDF01A80FB11D5D968C914B
:10013000928D9F5F9F73928F90E008958FEF9FEF56
:100140000895FC01918D828D981731F0828DE80F12
:10015000F11D858D90E008958FEF9FEF0895FC01CC
:10016000918D228D892F90E0805C9F4F821B910999
:100170008F739927089588EA91E00E94AF0021E0EB
:10018000892B09F420E0822F0895FC01848DDF0182
:10019000A80FB11DA35ABF4F2C91848D90E00196FA
:1001A0008F739927848FA689B7892C93A089B189E9
:1001B0008C9180648C93938D848D981306C00288F3
:1001C000F389E02D80818F7D80830895EF92FF92E7
:1001D0000F931F93CF93DF93EC0181E0888F9B8D6A
:1001E0008C8D981305C0E889F989808185FD24C02C
:1001F000F62E0B8D10E00F5F1F4F0F731127E02EAF
:100200008C8DE8120CC00FB607FCFACFE889F9898B
:10021000808185FFF5CFCE010E94C500F1CF8B8D87
:10022000FE01E80FF11DE35AFF4FF0820B8FEA89C0
:10023000FB898081806207C0EE89FF896083E8893D
:10024000F98980818064808381E090E0DF91CF91A3
:100250001F910F91FF90EF900895CF93DF93EC01E2
:10026000888D8823C9F0EA89FB89808185FD05C0D6
:10027000A889B9898C9186FD0FC00FB607FCF5CF10
:10028000808185FFF2CFA889B9898C9185FFEDCF58
:10029000CE010E94C500E7CFDF91CF910895833052
:1002A00081F028F4813099F08230A1F008958730F0
:1002B000A9F08830B9F08430D1F4809180008F7D2E
:1002C00003C0809180008F7780938000089584B56B
:1002D0008F7702C084B58F7D84BD08958091B00072
:1002E0008F7703C08091B0008F7D8093B000089518
:1002F000CF93DF93282F30E0F901EE58FF4F849120
:10030000F901E255FF4FD491F901E656FF4FC49130
:10031000CC2391F081110E944F01EC2FF0E0EE0F01
:10032000FF1FE859FF4FA591B491EC91ED2381E0B7
:1003300090E021F480E002C080E090E0DF91CF9176
:1003400008951F93CF93DF93282F30E0F901EE58E3
:10035000FF4F8491F901E255FF4FD491F901E65620
:10036000FF4FC491CC23C9F0162F81110E944F0179
:10037000EC2FF0E0EE0FFF1FEA57FF4FA591B4916D
:100380008FB7F894111105C09C91ED2FE095E923EA
:1003900002C0EC91ED2BEC938FBFDF91CF911F91B9
:1003A00008953FB7F8948091970190919801A0919A
:1003B0009901B0919A0126B5A89B05C02F3F19F06D
:1003C0000196A11DB11D3FBFBA2FA92F982F8827D5
:1003D000820F911DA11DB11DBC01CD0142E0660F30
:1003E000771F881F991F4A95D1F708958F929F9282
:1003F000AF92BF92CF92DF92EF92FF926B017C019E
:100400000E94D1014B015C01C114D104E104F1044B
:10041000F1F00E94D101DC01CB0188199909AA09E8
:10042000BB09883E9340A105B10570F321E0C21AD3
:10043000D108E108F10888EE880E83E0981EA11C1F
:10044000B11CC114D104E104F10419F7DDCFFF9010
:10045000EF90DF90CF90BF90AF909F908F900895D6
:100460002FB7F89460919301709194018091950158
:10047000909196012FBF0895AF92BF92DF92EF92B5
:10048000FF920F931F93CF93DF93DD24D39488EAD9
:1004900091E00E94AF00892B09F457C088EA91E0EF
:1004A0000E948D00C82F682F83E992E00E94AC045F
:1004B000CA3069F7E0909302F0909402E114F104DD
:1004C00009F440C0C0919702D09198022097D1F1D1
:1004D000570185018FEFA81AB80AF8018081082E0C
:1004E000000C990B0E942B0B892B99F72197CE0DAD
:1004F000DF1D8881082E000C990B0E942B0B892B85
:1005000089F4AE014F5F5F4F401B510B509398022F
:1005100040939702E016F10650F4B801C7010E941B
:10052000EF0D05C0C017D10760F32197E2CFE0912E
:100530009302F09194028091970290919802E80FB3
:10054000F91F1082D0929B01A2CFDF91CF911F9112
:100550000F91FF90EF90DF90BF90AF9008950E94B1
:10056000BB0081110C943C0208951F920F920FB6AC
:100570000F9211242F933F934F935F936F937F9329
:100580008F939F93AF93BF93EF93FF9388EA91E08C
:100590000E94C500FF91EF91BF91AF919F918F9104
:1005A0007F916F915F914F913F912F910F900FBE6F
:1005B0000F901F9018951F920F920FB60F92112453
:1005C0002F938F939F93EF93FF93E091B801F09156
:1005D000B9018081E091BE01F091BF0182FD12C09E
:1005E00090818091C1018F5F8F732091C20182172A
:1005F00051F0E091C101F0E0E855FE4F958F8093F6
:10060000C10101C08081FF91EF919F918F912F9146
:100610000F900FBE0F901F9018951F920F920FB65C
:100620000F9211242F933F938F939F93AF93BF9378
:100630008091930190919401A0919501B0919601C0
:100640003091920123E0230F2D3720F40196A11D54
:10065000B11D05C026E8230F0296A11DB11D2093F0
:1006600092018093930190939401A0939501B0938C
:1006700096018091970190919801A0919901B09174
:100680009A010196A11DB11D809397019093980145
:10069000A0939901B0939A01BF91AF919F918F91CF
:1006A0003F912F910F900FBE0F901F9018950895B6
:1006B000CF92DF92EF92FF920F931F93CF93DF932E
:1006C0006C017A018B01C0E0D0E0CE15DF0589F026
:1006D000D8016D918D01D601ED91FC910190F081D1
:1006E000E02DC6010995892B11F47E0102C02196E7
:1006F000ECCFC701DF91CF911F910F91FF90EF9049
:10070000DF90CF9008950E94E20DE8EAF1E0A08921
:10071000B18982E08C93A485B5851C92A685B785A6
:100720008FEC8C93108EA489B58986E08C93A28976
:10073000B3898C9180618C93A289B3898C918860F4
:100740008C93A289B3898C9180688C930288F389F9
:10075000E02D80818F7D80830895FC014481558147
:1007600080919702909198028417950780F080916C
:10077000930290919402009751F06081718161150C
:10078000710529F00E940A0E21E0892B09F020E072
:10079000822F0895EF92FF920F931F93CF93DF93D1
:1007A00022E08339920739F1209197023091980223
:1007B000FC014481558124173507F9F4232BD9F026
:1007C000C0919302D0919402008111818991882374
:1007D00091F0082E000C990B0E94E70D7C01F801A6
:1007E00081918F01082E000C990B0E94E70DE816ED
:1007F000F90661F302C081E001C080E0DF91CF9192
:100800001F910F91FF90EF900895CF93DF93FC011C
:1008100024813581232B69F0C081D181062E000C03
:10082000770BCE010E94F80D009719F08C1B9D0BE1
:1008300002C08FEF9FEFDF91CF9108950F931F9329
:10084000CF93DF938C01EB01FC01808191810097B4
:10085000B1F0688179816115710579F04281538128
:100860002C813D814217530740F00E94030E8C817A
:100870009D81F8019583848313C00E94800C888138
:100880009981F801918380838A819B8193838283FC
:100890008C819D8195838483198218821B821A82A0
:1008A0001D821C82DF91CF911F910F9108950F93AC
:1008B0001F93CF93DF93EC0188819981009729F0F2
:1008C0002A813B812617370788F48B016F5F7F4FA2
:1008D0000E94180D009761F0998388831B830A8317
:1008E0002C813D81232B11F4FC01108281E001C099
:1008F00080E0DF91CF911F910F910895EF92FF92C9
:100900000F931F93CF93DF93FC01248135816115F1
:10091000710511F480E019C041155105A9F07B0162
:10092000EC018A01020F131FB8010E9457048823AB
:1009300089F3288139818C819D81B701820F931FB2
:100940000E94030E1D830C8381E0DF91CF911F91E4
:100950000F91FF90EF900895CF93DF9300D0CDB724
:10096000DEB769831A8241E050E0BE016F5F7F4FBE
:100970000E947E040F900F90DF91CF910895CF9346
:10098000DF93EC0188819981009711F00E94800C1F
:10099000198218821D821C821B821A82DF91CF91DC
:1009A0000895CF93DF93EC016115710561F0FB01B0
:1009B00001900020E9F73197AF01461B570B0E94C9
:1009C0007E04811103C0CE010E94BF04CE01DF91DD
:1009D000CF910895CF93DF93EC01FB0144815581C2
:1009E000608171810E947E04811103C0CE010E944A
:1009F000BF04CE01DF91CF910895EF92FF920F9344
:100A00001F93CF93DF93EC017B018A01BA010E940F
:100A10005704811104C0CE010E94BF0407C01D838A
:100A20000C83B701888199810E94030ECE01DF916A
:100A3000CF911F910F91FF90EF900895CF93DF9387
:100A4000EC016115710559F0FB0101900020E9F7F7
:100A50003197AF01461B570B0E94FD0402C00E9454
:100A6000BF04CE01DF91CF910895FC018081918177
:100A70000C94800C0F931F93CF93DF93CDB7DEB709
:100A800062970FB6F894DEBF0FBECDBF8C01CB01CD
:100A9000F80111821082138212821582148250E0B2
:100AA000BE016F5F7F4F0E94340BBE016F5F7F4FAF
:100AB000C8010E941E0562960FB6F894DEBF0FBEF5
:100AC000CDBFDF91CF911F910F910895FC0111824D
:100AD000108213821282158214826115710551F001
:100AE000FB0101900020E9F73197AF01461B570B3E
:100AF0000C94FD040895BF92CF92DF92EF92FF9283
:100B00000F931F93CF93DF937C016B018A01E9015F
:100B10002417350720F4812F8901C42FD82F61E3D2
:100B200071E0C7010E946605D60114968D919C91D3
:100B3000159708171907D0F48C179D0708F4EC01D6
:100B4000D601ED91FC911197EC0FFD1FB080108242
:100B50004D915C91BA01600F711FC7010E941E0583
:100B6000D601ED91FC91EC0FFD1FB082C701DF9122
:100B7000CF911F910F91FF90EF90DF90CF90BF909A
:100B800008956115710579F0FB0101900020E9F7E6
:100B90003197AF01461B570BDC01ED91FC910280B0
:100BA000F381E02D099480E090E00895CF93DF93E6
:100BB000FC01448155816081718188EA91E00E9445
:100BC0005803EC016FE271E088EA91E00E94C105F0
:100BD0008C0F9D1FDF91CF9108954F925F926F927E
:100BE0007F92EF92FF920F931F93CF93DF93CDB736
:100BF000DEB7A1970FB6F894DEBF0FBECDBF7C0164
:100C0000FA01CB0119A2223008F42AE08E010F5D0F
:100C10001F4F422E512C612C712CBF01A301920158
:100C20000E948C0BF901CA01015011096A3014F4B9
:100C3000605D01C0695CD8016C93232B242B252BAC
:100C400061F7B801C7010E94C105A1960FB6F894DB
:100C5000DEBF0FBECDBFDF91CF911F910F91FF90EF
:100C6000EF907F906F905F904F900895CF93DF93B8
:100C7000CDB7DEB76E970FB6F894DEBF0FBECDBF0F
:100C8000789484B5826084BD84B5816084BD85B567
:100C9000826085BD85B5816085BD80916E00816073
:100CA00080936E0010928100809181008260809319
:100CB000810080918100816080938100809180001B
:100CC0008160809380008091B10084608093B10046
:100CD0008091B00081608093B00080917A00846040
:100CE00080937A0080917A00826080937A0080916C
:100CF0007A00816080937A0080917A008068809386
:100D00007A001092C1001092890210928A02109209
:100D10008B0210928C02109247021092480210929D
:100D2000490210924A0268EB7BE080E090E00E946A
:100D3000F60188EA91E090938802809387020E94EE
:100D400085030E94300260934702709348028093AB
:100D5000490290934A0260E271E08091870290918B
:100D600088020E94C1056AE070E080E090E00E9485
:100D7000F60181E080935B020E94850368EC70E0DD
:100D800083E992E00E945704ACE0B1E0F1E0A031C9
:100D9000BF0739F18D919D919927FC01E255FF4FD5
:100DA0002491FC01E656FF4F8491882379F390E06B
:100DB000880F991FFC01E057FF4F45915491FC01AA
:100DC000EA57FF4F659174919FB7F894FA018081BB
:100DD000209582238083FB018081822380839FBFB3
:100DE000D5CFA6E0B1E0F1E0AC30BF0711F18D91B5
:100DF0009D919927FC01E255FF4F2491FC01E65695
:100E0000FF4F8491882379F390E0880F991FFC01AC
:100E1000E057FF4F45915491FC01EA57FF4F8591F0
:100E200094918FB7F894FA019081922B90838FBFA1
:100E3000DACF85E00E94780190939F0180939E0114
:100E400086E00E94780190939D0180939C0184EF3D
:100E5000C82EDD24D394E12CF12C0E943002672BA4
:100E6000682B692B41F40E943002623071058105C4
:100E7000910508F40AC10E9430026093A4017093A6
:100E8000A5018093A6019093A7010091A001109164
:100E9000A1012091A2013091A3016017710782077F
:100EA000930740F46093A0017093A1018093A20185
:100EB0009093A3010091A0011091A1012091A201A2
:100EC0003091A3014B015C01801A910AA20AB30A76
:100ED000950184010A3F11052105310508F4D5C0AB
:100EE0006093A0017093A1018093A2019093A3014C
:100EF000C0925302D0925402E0925502F0925602F0
:100F000010925702109258021092590210925A02EF
:100F100080914B0290914C02A0914D02B0914E02F3
:100F200080934F0290935002A0935102B0935202CB
:100F30000E94300260934B0270934C0280934D02EA
:100F400090934E020E9430026093470270934802D1
:100F50008093490290934A020E9430024B015C0147
:100F600062E371E080918702909188020E94C1053E
:100F70002AE041E050E060E070E0809187029091CB
:100F800088020E94ED0569E371E0809187029091EB
:100F900088020E94C1052AE0B501A4018091870260
:100FA000909188020E94ED056BE371E080918702C9
:100FB000909188020E94C10580914B0290914C0251
:100FC000A0914D02B0914E02B501A401481B590BEE
:100FD0006A0B7B0B2AE080918702909188020E9425
:100FE000ED056BE371E080918702909188020E9489
:100FF000C10540914B0250914C0260914D0270919D
:101000004E0280914F0290915002A0915102B091F6
:101010005202481B590B6A0B7B0B2AE08091870216
:10102000909188020E94ED056DE371E08091870246
:10103000909188020E94C1050E943002AB01BC0160
:101040002AE080918702909188020E94ED0500912C
:101050008702109188026FE371E0C8010E94C10508
:101060006FE271E0C8010E94C10565E070E080E0B8
:1010700090E00E94F6010E94300260934B02709350
:101080004C0280934D0290934E0285E00E947801BD
:101090008C0186E00E94780120919E0130919F0191
:1010A0000217130771F010939F0100939E014AE00D
:1010B000B801CE0101960E943A054AE065E070E071
:1010C00014C020919C0130919D0182179307C9F1B2
:1010D00090939D0180939C014AE0BC01CE01019652
:1010E0000E943A054AE066E070E0CE0107960E9451
:1010F0003A0566E471E0CE010D960E946605BE01D8
:10110000695F7F4FCE010D960E94EA046EE471E0A4
:101110000E94D104BE016F5F7F4F0E94EA0464E524
:1011200071E00E94D1040E94D605CE010D960E9466
:101130003505CE0107960E943505CE0101960E9425
:10114000350580919B01882309F452C08091970254
:1011500090919802892B09F44BC068E871E0CE01A8
:1011600001960E946605CE0101960E94CA03182FBF
:10117000CE0101960E943505112309F472C066E57F
:1011800071E0CE010D960E94660506E011E0F1E0E7
:101190000C301F0781F529893A892150310940E037
:1011A00050E0BE01635F7F4FCE0101960E947B0538
:1011B000BE016F5F7F4FCE010D960E941E04CE01CF
:1011C00001960E9435056DE5CE010D960E94AC0496
:1011D000CE010D960E94D605CE010D960E943505D2
:1011E00061E371E083E992E00E941E0510929B0189
:1011F0000E94AF0232CEF801619171918F014AE0F5
:10120000CE0107960E943A051A8219821C821B821F
:101210001E821D826F8178856115710531F04B85C5
:101220005C85CE0101960E94FD046CE2CE01019620
:101230000E94AC04811104C0CE0101960E94BF043B
:101240004D815E8169817A81CE010D960E947E0476
:10125000CE0101960E943505CE0107960E94350504
:1012600096CF6CE571E0CE0101960E946605CE0135
:1012700001960E94CA03182FCE0101960E943505DF
:10128000112309F443C065E671E0CE010D960E947A
:1012900066050CE011E0F1E000311F0709F47BCF97
:1012A000F801619171918F014AE0CE0107960E9489
:1012B0003A051A8219821C821B821E821D826F814E
:1012C00078856115710531F04B855C85CE010196FD
:1012D0000E94FD046CE2CE0101960E94AC048111D3
:1012E00004C0CE0101960E94BF044D815E816981D8
:1012F0007A81CE010D960E947E04CE0101960E9455
:101300003505CE0107960E943505C5CF6CE671E024
:10131000CE0101960E946605CE0101960E94AD03A2
:10132000182FCE0101960E943505112309F483C0C0
:101330006BE583E992E00E940504209197023091C9
:101340009802AC014F5F5F4F63E972E0CE014996AE
:101350000E947B056DE5CE0149960E9405049C0123
:1013600040E050E0BE01675E7F4FCE0143960E9491
:101370007B058F89988D892B79F0AB88BC8860912B
:101380008D0270918E02C5010E94180E009721F007
:101390008C010A191B0902C00FEF1FEF980140E0F2
:1013A00050E0BE016D5E7F4FCE0101960E947B052D
:1013B00089819A81009721F00E94040BB62E02C009
:1013C000B12C70E09B2CA72ECE0101960E94350512
:1013D0002F89388DA8014F5F5F4FBE016D5E7F4F33
:1013E000CE0101960E947B0589819A81009719F0B0
:1013F0000E94040B03C060E070E0CB018B01CE01C2
:1014000001960E94350561E00130110509F060E0A8
:101410008B2D0E94A1014AE0B801CE0101960E94E5
:101420003A054AE0692D7A2DCE0107960E943A05C9
:1014300063E771E059C068E771E0CE0101960E9450
:101440006605CE0101960E94AD03182FCE010196CC
:101450000E943505112309F474C06BE583E992E01D
:101460000E9405042091970230919802AC014F5FD1
:101470005F4F63E972E0CE0149960E947B056DE5FE
:10148000CE0149960E9405049C0140E050E0BE0157
:10149000675E7F4FCE0143960E947B058B899C89B6
:1014A000009719F00E94040B02C060E070E0162F54
:1014B000072F862F0E9478015C0181E0A816B104F5
:1014C00021F461E084E00E94A1014AE0B501CE016F
:1014D00001960E943A054AE0612F702FCE010796CF
:1014E0000E943A0566E471E0CE010D960E94660501
:1014F000BE01695F7F4FCE010D960E94EA046EE443
:1015000071E00E94D104BE016F5F7F4F0E94EA0428
:1015100064E571E00E94D1040E94D605CE010D96CB
:101520000E943505CE0107960E943505CE01019631
:101530000E943505CE0143960E943505CE0149969D
:101540004DCE60E871E0CE0101960E94660563E928
:1015500072E0CE0101960E94EA040E94D605CE01F7
:1015600001963CCE8DE892E00E94350583E992E039
:101570000C943505E8EAF1E01382128288EE93E0DC
:10158000A0E0B0E084839583A683B78384E191E0F3
:101590009183808385EC90E09587848784EC90E04C
:1015A0009787868780EC90E0918B808B81EC90E030
:1015B000938B828B82EC90E0958B848B86EC90E011
:1015C000978B868B118E128E138E148EE5E4F2E0CB
:1015D0001682178210861186128613861486158647
:1015E00016861786108A118A128A138A148A158A17
:1015F00061E371E083E992E00E94660560E971E0D1
:101600008DE892E00C9466051F93FC0199278827CA
:10161000BC01E89411911032E9F3193010F01E303A
:10162000C8F31B3251F01D3249F4689406C00E9481
:101630004A0B610F711D811D911D119110531A30BC
:10164000B0F33EF490958095709561957F4F8F4FE4
:101650009F4F1F91089591110C94790B803219F0CE
:1016600089508550C8F708954532510520F442301D
:1016700010F00C943F0BFB011082CB010895BB27A7
:101680004A3031F4992322F4BDE2909581959F4F21
:101690000C94600B592F482F372F262F660F771F7A
:1016A000881F991F660F771F881F991F620F731F6E
:1016B000841F951F660F771F881F991F0895BB27EA
:1016C000FB015527AA27880F991FAA1FA41710F0FE
:1016D000A41B83955051B9F7A05DAA3308F0A95D0A
:1016E000A193009779F7B111B1931192CB010C94AA
:1016F0007C0B992788270895DC01FC01672F7191E5
:101700007723E1F7329704C07C916D9370836291E7
:10171000AE17BF07C8F30895A1E21A2EAA1BBB1B80
:10172000FD010DC0AA1FBB1FEE1FFF1FA217B307AD
:10173000E407F50720F0A21BB30BE40BF50B661FC3
:10174000771F881F991F1A9469F760957095809587
:1017500090959B01AC01BD01CF0108952F923F925E
:101760004F925F926F927F928F929F92AF92BF92B1
:10177000CF92DF92EF92FF920F931F93CF93DF935D
:10178000CDB7DEB7CA1BDB0B0FB6F894DEBF0FBEBA
:10179000CDBF09942A88398848885F846E847D8407
:1017A0008C849B84AA84B984C884DF80EE80FD8009
:1017B0000C811B81AA81B981CE0FD11D0FB6F8947F
:1017C000DEBF0FBECDBFED010895EE0FFF1F0590E8
:1017D000F491E02D0994CF93DF938230910510F4BA
:1017E00082E090E0E0919B02F0919C0220E030E0EA
:1017F000C0E0D0E0309711F140815181481759077E
:10180000C0F04817590761F482819381209719F03D
:101810009B838A832BC090939C0280939B0226C05B
:101820002115310519F04217530718F49A01BE012A
:10183000DF01EF010280F381E02DDCCF21153105BE
:1018400009F1281B390B2430310590F412968D9143
:101850009C9113976115710521F0FB01938382839D
:1018600004C090939C0280939B02FD01329644C079
:10187000FD01E20FF31F81939193225031092D93C3
:101880003C933AC02091990230919A02232B41F463
:10189000209102013091030130939A022093990222
:1018A00020910001309101012115310541F42DB73E
:1018B0003EB74091040150910501241B350BE09186
:1018C0009902F0919A02E217F307A0F42E1B3F0B46
:1018D0002817390778F0AC014E5F5F4F24173507A2
:1018E00048F04E0F5F1F50939A02409399028193E4
:1018F000919302C0E0E0F0E0CF01DF91CF91089535
:101900000F931F93CF93DF93009709F48CC0FC01D2
:1019100032971382128200919B0210919C02011552
:10192000110581F420813181820F931F209199024A
:1019300030919A022817390779F5F0939A02E093CB
:10194000990271C0D80140E050E0AE17BF0750F4D3
:1019500012962D913C911397AD012115310509F196
:10196000D901F3CF9D01DA01338322836081718134
:10197000860F971F8217930769F4EC01288139813C
:10198000260F371F2E5F3F4F318320838A819B8133
:1019900093838283452B29F4F0939C02E0939B026E
:1019A00042C01396FC93EE931297ED014991599121
:1019B0009E01240F351FE217F30771F48081918196
:1019C000840F951F029611969C938E93828193812A
:1019D00013969C938E931297E0E0F0E0D801129654
:1019E0008D919C911397009719F0F8018C01F6CF17
:1019F0008D919C9198012E5F3F4F820F931F2091F4
:101A0000990230919A022817390769F4309729F41E
:101A100010929C0210929B0202C0138212821093B9
:101A20009A0200939902DF91CF911F910F9108952F
:101A3000A0E0B0E0EEE1FDE00C94B20BEC01009709
:101A400021F4CB010E94EB0BB8C0FC01E60FF71F9D
:101A50009C0122503109E217F30708F4ACC0D90108
:101A60000D911C91119706171707B0F0053011055D
:101A700008F49FC0C80104978617970708F499C017
:101A800002501109061B170B019311936D937C9360
:101A9000CF010E94800C8DC05B01A01AB10A4C01DD
:101AA000800E911EA0919B02B0919C0240E050E0FC
:101AB000E12CF12C109709F44AC0A815B905D1F50D
:101AC0006D907C901197630182E0C80ED11CCA14FE
:101AD000DB0480F1A3014A195B096A0182E0C80EA8
:101AE000D11C1296BC9012971396AC91B5E0CB1610
:101AF000D10440F0B282A38351834083D9016D9316
:101B00007C930AC00E5F1F4FC301800F911FF90124
:101B100091838083EB2DFA2FE114F10431F0D7018A
:101B20001396FC93EE93129744C0F0939C02E093BB
:101B30009B023FC08D919C9111974817590708F45B
:101B4000AC017D0112960D90BC91A02DB3CF809178
:101B5000990290919A0288159905E1F44617570762
:101B6000C8F48091000190910101009741F48DB774
:101B70009EB74091040150910501841B950BE81715
:101B8000F907C8F4F0939A02E0939902F90171837E
:101B900060830FC0CB010E94EB0B7C01009759F0D2
:101BA000A801BE010E94EF0DCE010E94800CC7016A
:101BB00004C0CE0102C080E090E0CDB7DEB7EEE019
:101BC0000C94CE0B81E090E0F8940C94320E9111BD
:101BD000089581548A5108F4805E855A0895FB0166
:101BE000DC0102C001900D9241505040D8F7089599
:101BF000FC018191861721F08823D9F79927089550
:101C00003197CF010895FB01DC0101900D92002076
:101C1000E1F70895FB01DC014150504030F08D9117
:101C20000190801919F40020B9F7881B990B0895C9
:101C3000FB0151915523A9F0BF01DC014D914517DE
:101C40004111E1F759F4CD010190002049F04D9187
:101C500040154111C9F3FB014111EFCF81E090E044
:101C60000197089510E0C2E6D0E004C0FE010E9492
:0E1C7000E50B2196C336D107C9F7F894FFCFD4
:101C7E0000009D0280000200030004000500060023
:101C8E0000000000E6005803AF008D00A1002D01FA
:101C9E00564D4450565F317C315F564D4450560D73
:101CAE000A00564D4450455F003A323A007C005FC0
:101CBE00564D44504500427574746F6E5B005D2046
:101CCE003D205B005D004C6564735B0047657444AA
:101CDE006F6F727300446F6F72735B005365744C59
:101CEE0065640050696E5B00476574446F6F7200E7
:101CFE004572726F723A20004765744C65647300CA
:021D0E002C00A7
:107E0000112484B714BE81FFF0D085E080938100F7
:107E100082E08093C00088E18093C10086E0809377
:107E2000C20080E18093C4008EE0C9D0259A86E02C
:107E300020E33CEF91E0309385002093840096BBD3
:107E4000B09BFECF1D9AA8958150A9F7CC24DD24C4
:107E500088248394B5E0AB2EA1E19A2EF3E0BF2EE7
:107E6000A2D0813461F49FD0082FAFD0023811F036
:107E7000013811F484E001C083E08DD089C08234E0
:107E800011F484E103C0853419F485E0A6D080C0E4
:107E9000853579F488D0E82EFF2485D0082F10E0AE
:107EA000102F00270E291F29000F111F8ED06801E7
:107EB0006FC0863521F484E090D080E0DECF843638
:107EC00009F040C070D06FD0082F6DD080E0C81688
:107ED00080E7D80618F4F601B7BEE895C0E0D1E017
:107EE00062D089930C17E1F7F0E0CF16F0E7DF06D8
:107EF00018F0F601B7BEE89568D007B600FCFDCFD4
:107F0000A601A0E0B1E02C9130E011968C91119780
:107F100090E0982F8827822B932B1296FA010C0160
:107F200087BEE89511244E5F5F4FF1E0A038BF0790
:107F300051F7F601A7BEE89507B600FCFDCF97BE46
:107F4000E89526C08437B1F42ED02DD0F82E2BD052
:107F50003CD0F601EF2C8F010F5F1F4F84911BD097
:107F6000EA94F801C1F70894C11CD11CFA94CF0C13
:107F7000D11C0EC0853739F428D08EE10CD085E9AC
:107F80000AD08FE07ACF813511F488E018D01DD067
:107F900080E101D065CF982F8091C00085FFFCCF94
:107FA0009093C60008958091C00087FFFCCF809118
:107FB000C00084FD01C0A8958091C6000895E0E648
:107FC000F0E098E1908380830895EDDF803219F02E
:107FD00088E0F5DFFFCF84E1DECF1F93182FE3DFCA
:107FE0001150E9F7F2DF1F91089580E0E8DFEE27F6
:047FF000FF270994CA
:027FFE00040479
:0400000300007E007B
:00000001FF