:100000000C946B000C9493000C9493000C94F603E6
:100010000C94F6030C94F6030C9493000C94930048
:100020000C9493000C9493000C9493000C94930004
:100030000C9493000C9493000C9493000C949300F4
:100040000C94AC030C9493000C94AB020C948502BA
:100050000C9493000C9493000C9493000C949300D4
:100060000C9493000C949300130E160E2E0E310E6A
:10007000340E370E480E4B0E0000000024002700FF
:100080002A0000000008000201000003040700002D
:1000900000000000000000000000250028002B00E8
:1000A00000000000230026002900040404040404C6
:1000B0000404020202020202030303030303010217
:1000C00004081020408001020408102001020408E6
:1000D00010202215DB1411241FBECFEFD8E0DEBFA5
:1000E000CDBF24E0A8EDB2E001C01D92A137B20758
:1000F000E1F712E0A0E0B1E0E6EBF2E302C0059028
:100100000D92A83DB107D9F710E0CAE6D0E004C0CF
:100110002197FE010E94E416C936D107C9F70E9453
:10012000440B0C944E190C940000FC01538D448D2B
:10013000252F30E0842F90E0821B930B541710F092
:10014000CF96089501970895FC01918D828D98179F
:1001500061F0828DDF01A80FB11D5D968C91928DAB
:100160009F5F9F73928F90E008958FEF9FEF0895A8
:10017000FC01918D828D981731F0828DE80FF11D71
:10018000858D90E008958FEF9FEF0895FC01918D8C
:10019000228D892F90E0805C9F4F821B91098F7385
:1001A000992708958BE493E00E94C60021E0892BF3
:1001B00009F420E0822F0895FC01848DDF01A80F4F
:1001C000B11DA35ABF4F2C91848D90E001968F737F
:1001D0009927848FA689B7892C93A089B1898C919E
:1001E00080648C93938D848D981306C00288F38964
:1001F000E02D80818F7D80830895EF92FF920F9391
:100200001F93CF93DF93EC0181E0888F9B8D8C8DC2
:10021000981305C0E889F989808185FD24C0F62EF0
:100220000B8D10E00F5F1F4F0F731127E02E8C8D89
:10023000E8120CC00FB607FCFACFE889F989808173
:1002400085FFF5CFCE010E94DC00F1CF8B8DFE0142
:10025000E80FF11DE35AFF4FF0820B8FEA89FB890B
:100260008081806207C0EE89FF896083E889F9890F
:1002700080818064808381E090E0DF91CF911F9145
:100280000F91FF90EF900895CF93DF93EC01888D4D
:100290008823C9F0EA89FB89808185FD05C0A8898A
:1002A000B9898C9186FD0FC00FB607FCF5CF808110
:1002B00085FFF2CFA889B9898C9185FFEDCFCE015A
:1002C0000E94DC00E7CFDF91CF910895833081F069
:1002D00028F4813099F08230A1F008958730A9F098
:1002E0008830B9F08430D1F4809180008F7D03C0D4
:1002F000809180008F7780938000089584B58F77F8
:1003000002C084B58F7D84BD08958091B0008F7741
:1003100003C08091B0008F7D8093B00008953FB7F7
:10032000F89480913D0390913E03A0913F03B091DA
:10033000400326B5A89B05C02F3F19F00196A11DCB
:10034000B11D3FBFBA2FA92F982F8827820F911D6B
:10035000A11DB11DBC01CD0142E0660F771F881FB2
:10036000991F4A95D1F708952091DA023091DB0266
:100370002817390771F49091D8028091D902981703
:1003800041F0E091D802F0E0E450FD4F808190E030
:1003900008958FEF9FEF089508951F93CF93DF93F4
:1003A000DC015C962D913C915D972115310539F466
:1003B00081E090E013969C938E9312973DC05196E6
:1003C000ED91FC91529750969C915097892F809572
:1003D0001FB75E964C915E9741FB772770F941FD00
:1003E0006095F8944081772311F0492B01C0482390
:1003F0004083E9012197F1F748E0508160FF02C096
:10040000592B01C058235083E9012197F1F76695D4
:10041000415099F7772321F090818923808303C08D
:100420008081982B90831FBF5C968D919C915D97E6
:100430000197F1F721E030E0C901DF91CF911F91E1
:1004400008952091DA023091DB022817390771F400
:100450008091D9022091D80290E0805C9F4F821B4E
:10046000910960E470E00E94D016089580E090E069
:1004700008952091DA023091DB0228173907B9F488
:100480009091D8028091D902981789F0E091D80212
:10049000F0E0E450FD4F80812091D80230E02F5FE2
:1004A0003F4F2F7333272093D80290E008958FEFAA
:1004B0009FEF0895089580E090E00895CF93DF9333
:1004C000D1E08BE493E00E94C600892B99F08BE485
:1004D00093E00E94A400C82F682F87E694E00E9452
:1004E000B609CA3071F787E694E00E943808D093C5
:1004F000EE02E7CFDF91CF9108950E94D2008111E3
:100500000C945E0208950E94F5181F920F920FB688
:100510000F9211242F933F934F935F936F937F9389
:100520008F939F93AF93BF93EF93FF938BE493E0ED
:100530000E94DC00FF91EF91BF91AF919F918F914D
:100540007F916F915F914F913F912F910F900FBECF
:100550000F901F9018951F920F920FB60F921124B3
:100560002F938F939F93EF93FF93E0915B03F09111
:100570005C038081E0916103F091620382FD12C00F
:100580009081809164038F5F8F7320916503821740
:1005900051F0E0916403F0E0E55BFC4F958F8093B0
:1005A000640301C08081FF91EF919F918F912F9102
:1005B0000F900FBE0F901F901895CF93DF93282FA9
:1005C00030E0F901EE57FF4F8491F901E254FF4FFB
:1005D000D491F901E655FF4FC491CC2391F08111DC
:1005E0000E946601EC2FF0E0EE0FFF1FE056FF4F78
:1005F000A591B491EC91ED2381E090E021F480E0AD
:1006000002C080E090E0DF91CF9108951F93CF93D7
:10061000DF93282F30E0F901EE57FF4F8491F90165
:10062000E254FF4FD491F901E655FF4FC491CC231A
:10063000C9F0162F81110E946601EC2FF0E0EE0F39
:10064000FF1FEA56FF4FA591B4918FB7F89411118F
:1006500005C09C91ED2FE095E92302C0EC91ED2BB4
:10066000EC938FBFDF91CF911F910895CF93DF93CC
:1006700090E0FC01E254FF4F2491FC01E655FF4F4E
:100680008491882361F190E0880F991FFC01E8585C
:10069000FF4FC591D491FC01EA56FF4FA591B4914B
:1006A000611109C09FB7F8948881209582238883BF
:1006B000EC912E230BC0623061F49FB7F89438811F
:1006C000822F809583238883EC912E2B2C939FBFC0
:1006D00006C08FB7F894E8812E2B28838FBFDF9157
:1006E000CF9108958F929F92AF92BF92CF92DF9257
:1006F000EF92FF926B017C010E948F014B015C0124
:10070000C114D104E104F104F1F00E948F01DC0175
:10071000CB0188199909AA09BB09883E9340A10514
:10072000B10570F321E0C21AD108E108F10888EEA2
:10073000880E83E0981EA11CB11CC114D104E104F1
:10074000F10419F7DDCFFF90EF90DF90CF90BF90CD
:10075000AF909F908F9008951F920F920FB60F92B7
:1007600011242F933F938F939F93AF93BF938091C7
:10077000410390914203A0914303B091440330910F
:100780003C0323E0230F2D3720F40196A11DB11D5A
:1007900005C026E8230F0296A11DB11D20933C033E
:1007A0008093410390934203A0934303B093440387
:1007B00080913D0390913E03A0913F03B09140038F
:1007C0000196A11DB11D80933D0390933E03A0931C
:1007D0003F03B0934003BF91AF919F918F913F91A1
:1007E0002F910F900FBE0F901F9018951F920F9290
:1007F0000FB60F9211242F933F934F935F936F93F4
:100800007F938F939F93AF93BF93EF93FF93E09169
:10081000DA02F091DB02309709F451C0968DA6857B
:10082000B785858591FF04C09C91892329F447C031
:100830009C91892309F043C0A389B4899C9185893F
:10084000809589238C93868997890197F1F7608D2C
:10085000718DA685B785558538E020E0CB010197DD
:10086000F1F7822F90E095958795282F4C9145239D
:1008700009F02068315091F7868D81FD2095809197
:10088000D90290E001968F7399273091D8023817DA
:1008900049F0A091D902B0E0A450BD4F2C938093B1
:1008A000D90203C0868D8160868F828D938D0197DA
:1008B000F1F7A389B4899C918589892B8C93FF9149
:1008C000EF91BF91AF919F918F917F916F915F91C8
:1008D0004F913F912F910F900FBE0F901F90189541
:1008E0000F931F93CF93DF9300D000D000D0CDB7EC
:1008F000DEB78C0166E374E0CE0101960E94DE0A49
:1009000065EC72E0CE0101960E948A09BC018BE47D
:1009100093E00E94250BCE0101960E94800A65ECAF
:1009200072E082E494E00E94110B68EE73E080E0D4
:1009300090E00E94720366E374E0CE0101960E948B
:10094000DE0AB801CE0101960E94A309BC018BE426
:1009500093E00E94250BCE0101960E94800AB80107
:1009600082E494E00E94250B68EE73E080E090E062
:100970000E947203E0914204F09143040190F081DF
:10098000E02D6AE182E494E009956AE472E082E491
:1009900094E00E94FC0A68EE73E080E090E00E9420
:1009A000720326960FB6F894DEBF0FBECDBFDF915F
:1009B000CF911F910F9108950F931F93CF93DF93C2
:1009C00000D000D000D0CDB7DEB78C0166E374E074
:1009D000CE0101960E94DE0AB801CE0101960E9466
:1009E000A309BC018BE493E00E94250BCE01019684
:1009F0000E94800AB80182E494E00E94250B81E005
:100A00008093EF0226960FB6F894DEBF0FBECDBFDF
:100A1000DF91CF911F910F910895CF92DF92EF92C6
:100A2000FF920F931F93CF93DF93CDB7DEB7A497B9
:100A30000FB6F894DEBF0FBECDBF69ED71E0CE01F9
:100A400001960E94E70ABE016F5F7F4FCE010796B5
:100A50000E94DE0A68E2CE0107960E94DD09BC0111
:100A600081E694E00E94690ACE0107960E94800AFE
:100A7000CE0101960E94800A8CEDE82E82E0F82ECD
:100A800098EEC92E93E0D92E10E008E2F70180819C
:100A9000882309F496C00E94DD024AE0682FCE0147
:100AA0004F960E94850AB601CE0149960E94DE0A41
:100AB0004AE0F7016081CE0143960E94850A4AE030
:100AC000612FCE010D960E94850A1A8219821C821E
:100AD0001B821E821D820F831886BE01695F7F4FB5
:100AE000CE0101960E940C0ABE016F5F7F4FCE01BE
:100AF00007960E94DE0A67E171E0CE0107960E9428
:100B00008A096CE071E00E948A09BE01635F7F4F31
:100B10000E94A30963E271E00E948A0965ED71E019
:100B20000E948A096CE071E00E948A09BE016D5E34
:100B30007F4F0E94A30963E271E00E948A0960ED81
:100B400071E00E948A096CE071E00E948A09BE018E
:100B5000675E7F4F0E94A30963E271E00E948A09E9
:100B600066E071E00E948A096CE071E00E948A09E7
:100B7000BE01615E7F4F0E94A30969E20E94DD0908
:100B8000FC01448155816081718181E694E00E947D
:100B90005C09CE0107960E94800ACE0101960E9450
:100BA000800ACE010D960E94800ACE0143960E94D3
:100BB000800ACE0149960E94800ACE014F960E947B
:100BC000800A1F5FFFEFEF1AFF0A86E0C80ED11CF4
:100BD000163009F05BCF69E281E694E00E94B60925
:100BE00061E674E08BE493E00E94250B61E674E01B
:100BF000CE0101960E94DE0ACE0101960E94700489
:100C0000CE0101960E94800AA4960FB6F894DEBF2A
:100C10000FBECDBFDF91CF911F910F91FF90EF904D
:100C2000DF90CF900895BF92CF92DF92EF92FF9224
:100C30000F931F93CF93DF93CDB7DEB7E6970FB631
:100C4000F894DEBF0FBECDBF68EC71E0CE01019617
:100C50000E94E70ABE016F5F7F4FCE0143960E945C
:100C6000DE0A68E2CE0143960E94DD09BC0181E6FE
:100C700094E00E94690ACE0143960E94800ACE0148
:100C800001960E94800A85E4E82E83E0F82E9CE01D
:100C9000C92E94E0D92E00E010E028E2B22EF70130
:100CA0008081882309F4C4C0F801EE51FD4F808192
:100CB0001AAA19AA1CAA1BAA1EAA1DAA4AE0BE01AA
:100CC0006F5F7F4F90E00E943816BE016F5F7F4FCD
:100CD000CE01C1960E940C0A4AE0F801E851FD4F8E
:100CE0006081CE018B960E94850AB601CE01859661
:100CF0000E94DE0A4AE0F7016081CE014F960E9411
:100D0000850A4AE0602FCE0149960E94850A1A8220
:100D100019821C821B821E821D82BB8A1C8ABE0114
:100D20006D5E7F4FCE0101960E940C0ABE016F5F7F
:100D30007F4FCE0143960E94DE0A67E171E0CE014B
:100D400043960E948A096CE071E00E948A09BE0104
:100D5000675E7F4F0E94A30963E271E00E948A09E7
:100D600065ED71E00E948A096CE071E00E948A09D9
:100D7000BE01615E7F4F0E94A30963E271E00E94A1
:100D80008A0960ED71E00E948A096CE071E00E94BE
:100D90008A09BE016B5D7F4F0E94A30963E271E087
:100DA0000E948A0966E071E00E948A096CE071E0A5
:100DB0000E948A09BE01655D7F4F0E94A30963E21C
:100DC00071E00E948A0963EC71E00E948A096CE07C
:100DD00071E00E948A09BE016F5C7F4F0E94A309E7
:100DE00069E20E94DD09FC014481558160817181C5
:100DF00081E694E00E945C09CE0143960E94800A3D
:100E0000CE0101960E94800ACE0149960E94800A76
:100E1000CE014F960E94800ACE0185960E94800ADC
:100E2000CE018B960E94800ACE01C1960E94800A54
:100E30000F5F1F4FFFEFEF1AFF0A86E0C80ED11CAD
:100E40000630110509F02BCF69E281E694E00E949B
:100E5000B60961E674E08BE493E00E94250B61E63D
:100E600074E0CE0101960E94DE0ACE0101960E9436
:100E70007004CE0101960E94800AE6960FB6F8949F
:100E8000DEBF0FBECDBFDF91CF911F910F91FF90BD
:100E9000EF90DF90CF90BF900895CF93DF93EC0158
:100EA000FB01248135810E94230ACE01DF91CF917D
:100EB00008952FB7F8948091410390914203A09137
:100EC0004303B09144032FBF80934A0490934B0493
:100ED000A0934C04B0934D04E0914204F09143047C
:100EE0000284F385E02D82E494E0099597FF26C003
:100EF0002FB7F8948091410390914203A09143034E
:100F0000B09144032FBF40914A0450914B0460912B
:100F10004C0470914D04841B950BA60BB70B4091AC
:100F20004604509147046091480470914904841725
:100F30009507A607B70780F28FEF9FEF0895CF932D
:100F4000DF93EC0188819981009711F00E9493173B
:100F5000198218821D821C821B821A82DF91CF9116
:100F60000895CF92DF92FF920F931F93CF93DF9359
:100F7000F82E85E4C82E83E0D82EEB018601802F61
:100F80008C198F1550F4F80181918F01882319F085
:100F90000E94DD0288832196F2CFDF91CF911F91CD
:100FA0000F91FF90DF90CF900895EF92FF920F93F3
:100FB0001F93CF93DF9324E08736920739F1209176
:100FC0006B0430916C04FC01448155812417350772
:100FD000F9F4232BD9F0C0916704D0916804008103
:100FE00011818991882391F0082E000C990B0E94A1
:100FF000FA187C01F80181918F01082E000C990BE1
:101000000E94FA18E816F90661F302C081E001C0F7
:1010100080E0DF91CF911F910F91FF90EF900895A5
:10102000FC014481558180916B0490916C0484177C
:10103000950780F08091670490916804009751F0C3
:10104000608171816115710529F00E94261921E0E6
:10105000892B09F020E0822F0895FC018081918185
:10106000009711F00C94111660E070E0CB01089528
:10107000AF92BF92CF92DF92EF92FF920F931F93A6
:10108000CF93DF93DC01CD90DC901197C114D10494
:1010900009F442C01496CD91DC9115972097E1F1A7
:1010A0008C0156017501BFEFAB1ABB0AF7018081B5
:1010B000082E000C990B0E947D16892B99F7219719
:1010C000CC0DDD1D8881082E000C990B0E947D1629
:1010D000892B91F4AE014F5F5F4F4E195F09D80124
:1010E00015965C934E931497CE14DF0450F4B70119
:1010F000C6010E94021905C0CE15DF0558F32197DD
:10110000E1CFD801ED91FC91119714968D919C91AE
:101110001597E80FF91F1082DF91CF911F910F9162
:10112000FF90EF90DF90CF90BF90AF900895CF9356
:10113000DF93FC0124813581232B71F0FB01DC015D
:10114000CD91DC9160817181CE010E9434190097AC
:1011500019F08C1B9D0B02C08FEF9FEFDF91CF9199
:101160000895CF93DF93FC0124813581232B69F00F
:10117000C081D181062E000C770BCE010E940B1985
:10118000009719F08C1B9D0B02C08FEF9FEFDF9132
:10119000CF910895FC0124813581FB014481558163
:1011A0002417350721F5FC0180819181FB016081C5
:1011B0007181009719F061157105A1F46115710530
:1011C00049F0232BB1F0FB01808190E0919581954E
:1011D00091090AC0009769F0232B59F0FC01808126
:1011E00090E002C00E94161921E0892B19F020E03E
:1011F00001C021E0822F08950F931F93CF93DF93B7
:101200008C01EB01FC01808191810097B1F0688134
:1012100079816115710579F0428153812C813D817D
:101220004217530740F00E941F198C819D81F801DD
:101230009583848313C00E94931788819981F80154
:10124000918380838A819B81938382838C819D811A
:1012500095838483198218821B821A821D821C82C4
:10126000DF91CF911F910F9108950F931F93CF930B
:10127000DF93EC0188819981009729F02A813B81D5
:101280002617370788F48B016F5F7F4F0E942B185A
:10129000009761F0998388831B830A832C813D81A9
:1012A000232B11F4FC01108281E001C080E0DF916A
:1012B000CF911F910F910895EF92FF920F931F937B
:1012C000CF93DF93FC01248135816115710511F401
:1012D00080E019C041155105A9F07B01EC018A019C
:1012E000020F131FB8010E943509882389F3288152
:1012F00039818C819D81B701820F931F0E941F1934
:101300001D830C8381E0DF91CF911F910F91FF909E
:10131000EF900895CF93DF93EC016115710561F0B3
:10132000FB0101900020E9F73197AF01461B570BF5
:101330000E945C09811103C0CE010E949F07CE016B
:10134000DF91CF910895CF93DF93EC01FB014481AE
:101350005581608171810E945C09811103C0CE01B9
:101360000E949F07CE01DF91CF910895CF93DF9325
:1013700000D0CDB7DEB769831A8241E050E0BE01EC
:101380006F5F7F4F0E945C090F900F90DF91CF91AC
:101390000895CF93DF93EC016CE472E00E94E70ABA
:1013A0000E94590797FD05C0682FCE010E94B6091B
:1013B000F7CFCE01DF91CF910895CF93DF93EC016A
:1013C0000E94B609811103C0CE010E949F07CE0181
:1013D000DF91CF910895EF92FF920F931F93CF93D8
:1013E000DF93EC017B018A01BA010E94350981116A
:1013F00004C0CE010E949F0707C01D830C83B70164
:10140000888199810E941F19CE01DF91CF911F9190
:101410000F91FF90EF900895CF93DF93EC0161154A
:10142000710559F0FB0101900020E9F73197AF01F8
:10143000461B570B0E94EB0902C00E949F07CE017A
:10144000DF91CF910895BF92CF92DF92EF92FF92FA
:101450000F931F93CF93DF937C016B018A01E90106
:101460002417350720F4812F8901C42FD82F6CE46D
:1014700072E0C7010E94E70AD60114968D919C91F3
:10148000159708171907D0F48C179D0708F4EC017D
:10149000D601ED91FC911197EC0FFD1FB0801082E9
:1014A0004D915C91BA01600F711FC7010E940C0A37
:1014B000D601ED91FC91EC0FFD1FB082C701DF91C9
:1014C000CF911F910F91FF90EF90DF90CF90BF9041
:1014D0000895CF93DF93EC01FB018617970761F026
:1014E000608171816115710529F0448155810E94E7
:1014F000EB0902C00E949F07CE01DF91CF910895B2
:10150000FC01808191810C9493170F931F93CF93CB
:10151000DF93CDB7DEB729970FB6F894DEBF0FBEC5
:10152000CDBF8C01862FF8011182108213821282A6
:101530001582148250E0BE016F5F7F4F90E00E94E1
:101540005816BE016F5F7F4FC8010E940C0A299692
:101550000FB6F894DEBF0FBECDBFDF91CF911F91C4
:101560000F9108950895CF92DF92EF92FF920F931B
:101570001F93CF93DF936C017A018B01C0E0D0E021
:10158000CE15DF0589F0D8016D918D01D601ED9161
:10159000FC910190F081E02DC6010995892B11F491
:1015A0007E0102C02196ECCFC701DF91CF911F9140
:1015B0000F91FF90EF90DF90CF900895FC01118282
:1015C000108213821282158214820C94690AFC0123
:1015D00011821082138212821582148261157105A4
:1015E00051F0FB0101900020E9F73197AF01461B54
:1015F000570B0C94EB0908956115710579F0FB0107
:1016000001900020E9F73197AF01461B570BDC0131
:10161000ED91FC910280F381E02D099480E090E04F
:1016200008950F931F93CF93DF93EC010E94FC0A60
:101630008C016AE472E0CE010E94FC0A800F911FC7
:10164000DF91CF911F910F9108950F931F93CF9327
:10165000DF93EC01E881F981DB0114964D915C91F7
:1016600015976D917C910280F381E02D09958C0195
:101670006AE472E0CE010E94FC0A800F911FDF91A4
:10168000CF911F910F910895CF93DF93CDB7DEB720
:101690006F970FB6F894DEBF0FBECDBF789484B5B8
:1016A000826084BD84B5816084BD85B5826085BD5E
:1016B00085B5816085BD80916E00816080936E00EC
:1016C00010928100809181008260809381008091DE
:1016D000810081608093810080918000816080938F
:1016E00080008091B10084608093B1008091B0004F
:1016F00081608093B00080917A00846080937A004A
:1017000080917A00826080937A0080917A00816073
:1017100080937A0080917A00806880937A0010929A
:10172000C10088E08093450366E072E08CE094E0BD
:101730000E940C0A1092E20287E08093460362E165
:1017400072E082E194E00E940C0A81E08093E3025F
:1017500005E413E036E0E32EE00EF80181918F01FD
:10176000882319F060E00E943603E012F6CF68EE9D
:1017700072E086E00E94B10786E08093DC026DE1B2
:1017800072E088EE93E00E940C0A0CED12E026E075
:10179000E22EE00EF80181918F01882319F061E0BB
:1017A0000E943603E012F6CF61E086E00E94060355
:1017B00064E670E087E694E00E94350964EF71E02A
:1017C00081E694E00E943509E0915B03F0915C03AF
:1017D00082E08083E0915703F09158031082E091FA
:1017E0005903F0915A038FEC808310926303E091C8
:1017F0005F03F091600386E08083E0915D03F091E8
:101800005E03808180618083E0915D03F0915E03DF
:10181000808188608083E0915D03F0915E03808128
:1018200080688083E0915D03F0915E0380818F7D0D
:10183000808310925D0410925C0410925B041092FD
:101840005A0410925904109258048DE991E0909333
:101850005F0480935E0420914E04263108F055C049
:101860008DEB90E090935904809358048BE991E0BC
:1018700090935B0480935A048CE291E090935D0412
:1018800080935C0490916800283050F031E02E3055
:1018900008F430E081E001C0880F3A95EAF701C012
:1018A00084E0892B80936800283038F02E3040F097
:1018B000263148F48CE690E008C08DE690E005C043
:1018C0008BE690E002C080E090E090935604809315
:1018D0005504283030F491E001C0990F2A95EAF7B9
:1018E0000CC0822F90E02E3010F4089701C00E97A4
:1018F00091E001C0990F8A95EAF79093570480917F
:101900005E0490915F040197F1F780915C049091DF
:101910005D04892B49F1E091DA02F091DB0224E0C9
:10192000E234F20709F1309739F0A389B4899C9128
:101930008589809589238C93809160048E7F809324
:1019400060041092D9021092D80282E494E090933D
:10195000DB028093DA02E0915504F0915604908105
:1019600080915704892B808368E272E0CE01019652
:101970000E94E70ACE0101960E94DC04CE01019686
:101980000E94800AEE24E39460EF72E086E00E94F9
:10199000B10788EEC82E82E0D82E95E4A92E93E0F8
:1019A000B92E00E010E0F50181915F01882309F470
:1019B0006EC0F801E051FD4F6081F601808186170D
:1019C00009F465C060834AE0CE0101960E94850A51
:1019D0004AE0602FCE0107960E94850A67E171E018
:1019E000CE010D960E94E70A60E171E0CE014996B2
:1019F0000E94E70ABE01675E7F4FCE0143960E94B8
:101A0000DE0A68E2CE0143960E94DD09BE01635FF3
:101A10007F4F0E94A3096CE071E00E948A09BE0119
:101A2000695F7F4F0E94A30963E271E00E948A0907
:101A300066E071E00E948A096CE071E00E948A0908
:101A4000BE016F5F7F4F0E94A30969E20E94DD091A
:101A5000BC018BE493E00E94250BCE0143960E94CB
:101A6000800ACE0149960E94800ACE010D960E94FE
:101A7000800ACE0107960E94800ACE0101960E943C
:101A8000800A6CE271E080E090E00E9472030F5FD8
:101A90001F4FFFEFCF1ADF0A0630110509F083CF81
:101AA0008091EE02882311F180916B0490916C0477
:101AB000892BE1F065EB71E0CE0101960E94E70A07
:101AC000CE0101960E94D507182FCE0101960E94E3
:101AD000800A112309F448C10E9413066CE472E0E5
:101AE00087E694E00E940C0A1092EE028091EF02C9
:101AF000882309F488C082E494E00E942102892BA3
:101B000009F42FC1CE0101960E94C909BE016F5F81
:101B10007F4F80E394E00E94FC08CE0101960E9472
:101B2000800A80E394E00E94380867E472E0CE0106
:101B300001960E94E70A20913404309135044D81CA
:101B40005E8124173507A0F0809130049091310414
:101B5000009771F069817A816115710549F0241B44
:101B6000350B820F931F0E94161911E0892B09F083
:101B700010E0CE0101960E94800A112349F01092D4
:101B8000EF026AE472E08BE493E00E94FC0AE9C091
:101B90008091FB02882309F4E4C000E010E080910A
:101BA00034049091350408171907F0F4809130043B
:101BB000909131040097A9F0FC01E00FF11F8081A2
:101BC0008E3279F48091F9029091FA020196909305
:101BD000FA028093F9026AE472E08BE493E00E94D7
:101BE000FC0A0F5F1F4FDBCF8091F9029091FA0240
:101BF000039724F01092FB021092EF021092FA0267
:101C00001092F902AEC08091F802811155C0E091A6
:101C1000F602F091F702E830F10508F0A2C0EC5CA2
:101C2000FF4F0C94E4166DE472E002C068E572E0C8
:101C3000CE0101960E94E70ACE0101960E94DC04C3
:101C4000CE0101960E94800A8091F6029091F702DF
:101C500001969093F7028093F60283C064E672E0E7
:101C6000E7CF6FE672E0E4CF62E872E0E1CF6BE8C5
:101C700072E0CE0101960E94E70ACE0101960E9411
:101C8000DC04CE0101960E94800AE092FB02DCCFC8
:101C900064E972E0CDCF6CEB72E0CE0101960E9458
:101CA000E70ACE0101960E947004CE0101960E94BF
:101CB000800AE092F80255C082E494E00E9421027A
:101CC000892B09F44EC0CE0101960E94C909BE01BC
:101CD0006F5F7F4F87E694E00E94FC08CE0101967B
:101CE0000E94800A87E694E00E9438086CE374E062
:101CF000CE0101960E94DE0A67E674E0CE010196ED
:101D00000E94A309BC018BE493E00E94250BCE0145
:101D100001960E94800A65EB71E0CE0101960E9457
:101D2000E70ACE0101960E94D507182FCE01019631
:101D30000E94800A112319F00E94130612C066EA5D
:101D400071E0CE0101960E94E70ACE0101960E9441
:101D5000D507182FCE0101960E94800A11110E940A
:101D60000D050E947D0210CE68E971E0CE0101965A
:101D70000E94E70ACE0101960E941008182FCE019A
:101D800001960E94800A112309F45FC068E287E689
:101D900094E00E94B108AC014F5F5F4F67E674E0CA
:101DA000CE0149960E944D0769E2CE0149960E94F4
:101DB000B1089C0140E050E0BE01675E7F4FCE015C
:101DC00043960E94230A63E271E0CE0101960E94CD
:101DD000E70ABE016F5F7F4FCE0143960E949708CE
:101DE0008C01CE0101960E94800A1127980140E0E3
:101DF00050E0BE016D5E7F4FCE0101960E94230A26
:101E0000CE0101960E942D08D62ECE0101960E9489
:101E1000800AA8014F5F5F4FBE016D5E7F4FCE010C
:101E20000D960E944D076D2D70E0FB01EB5BFC4FA2
:101E30008081882309F466C386E0869F8001879F9E
:101E4000100D1124045F1B4F6CC36BE871E0CE01D1
:101E500001960E94E70ACE0101960E941008182FF1
:101E6000CE0101960E94800A112309F46DC068E238
:101E700087E694E00E94B108AC014F5F5F4F67E6D0
:101E800074E0CE010D960E944D0769E2CE010D96D9
:101E90000E94B1089C0140E050E0BE01635F7F4FAB
:101EA000CE0107960E94230A63E271E0CE010196FB
:101EB0000E94E70ABE016F5F7F4FCE0107960E9426
:101EC00097086C01CE0101960E94800ADD249601DC
:101ED00040E050E0BE01695F7F4FCE0101960E9455
:101EE000230ACE0101960E942D08162FCE010196DD
:101EF0000E94800AA6014F5F5F4FBE01695F7F4F5E
:101F0000CE0101960E944D07CE0101960E942D0838
:101F1000062FCE0101960E94800AE12FF0E0EB5BD4
:101F2000FC4F1081112309F4B1C3101709F4AEC39B
:101F3000008368EE72E086E00E94B10761E0812FC5
:101F40000E94360360E0ACC36DE771E0CE010196FC
:101F50000E94E70ACE0101960E941008182FCE01B8
:101F600001960E94800A112309F469C068E287E69D
:101F700094E00E94B108AC014F5F5F4F67E674E0E8
:101F8000CE010D960E944D0769E2CE010D960E948A
:101F9000B1089C0140E050E0BE01635F7F4FCE017D
:101FA00007960E94230A63E271E0CE0101960E9427
:101FB000E70ABE016F5F7F4FCE0107960E94970828
:101FC0006C01CE0101960E94800ADD24960140E05A
:101FD00050E0BE01695F7F4FCE0101960E94230A47
:101FE000CE0101960E942D08162FCE0101960E9467
:101FF000800AA6014F5F5F4FBE01695F7F4FCE0130
:1020000001960E944D07CE0101960E942D08CE0137
:1020100001966F8F0E94800A812F90E0FC01EB5B9C
:10202000FC4F20816F8D222309F430C3FC01EE5157
:10203000FD4F21E0613009F020E0208334C363E7E5
:1020400071E0CE0101960E94E70ACE0101960E943E
:102050001008182FCE0101960E94800A112309F45E
:10206000F9C068E287E694E00E94B108AC014F5FD6
:102070005F4F67E674E0CE0149960E944D0769E222
:10208000CE0149960E94B1089C0140E050E0BE019B
:10209000675E7F4FCE0143960E94230A63E271E0A0
:1020A000CE0101960E94E70ABE016F5F7F4FCE010D
:1020B00043960E9497088C01CE0101960E94800AE7
:1020C0001127980140E050E0BE016D5E7F4FCE01C8
:1020D00001960E94230ACE0101960E942D08D62E59
:1020E000CE0101960E94800A6CE472E0CE010D964A
:1020F0000E94E70AA8014F5F5F4FBE016D5E7F4FF0
:10210000CE0101960E944D07BE016F5F7F4FCE0149
:102110000D960E94FC08CE0101960E94800A63E29F
:1021200071E0CE0101960E94E70ABE016F5F7F4F0A
:10213000CE010D960E9497088C01CE0101960E9457
:10214000800A1127980140E050E0BE01635F7F4F95
:10215000CE0107960E94230AA8014F5F5F4FBE0180
:10216000635F7F4FCE0101960E944D07BE016F5FF6
:102170007F4FCE010D960E94FC08CE0101960E9471
:10218000800A63E271E0CE0101960E94E70ABE0177
:102190006F5F7F4FCE010D960E9497088C01CE0194
:1021A00001960E94800A9801332740E050E0BE016A
:1021B000635F7F4FCE0101960E94230ACE010196F4
:1021C0000E942D08C62ECE0101960E94800AE5E4E9
:1021D000F3E000E010E08191811126C098012B5BB3
:1021E0003C4F4901F901D08226E0209FC001219F88
:1021F000900D11249C01245F3B4F5901BE01695F82
:102200007F4FC9010E94690AB501CE0101960E9463
:10221000DE0ABE01695F7F4FCE0101960E94CA08A7
:1022200081110AC0F40147C30F5F1F4F063011052B
:1022300091F610924503B8C3F801EE51FD4F81E0CD
:10224000C81280E0808368EE72E083E00E94B107EC
:1022500060E091C166E671E0CE0101960E94E70A56
:10226000CE0101960E941008182FCE0101960E94FF
:10227000800A112309F444C068E287E694E00E94D2
:10228000B108AC014F5F5F4F67E674E0CE0107967F
:102290000E944D0769E2CE0107960E94B1089C0199
:1022A00040E050E0BE01695F7F4FCE0101960E9481
:1022B000230ACE0101960E942D08062F10E0F80196
:1022C000EB5BFC4F8081882309F433C3108226E046
:1022D000209FC001219F900D11246CE472E0845F67
:1022E0009B4F0E940C0AF801EE51FD4F1082F8013D
:1022F000E851FD4F1082F801E051FD4F10822DC3CF
:1023000066EA71E0CE0101960E94E70ACE010196CD
:102310000E94D507182FCE0101960E94800A112332
:1023200019F00E940D05DACB67E571E0CE01019648
:102330000E94E70ACE0101960E941008182FCE01D4
:1023400001960E94800A112309F475C068E287E6AD
:1023500094E00E94B108AC014F5F5F4F67E674E004
:10236000CE010D960E944D0769E2CE010D960E94A6
:10237000B1089C0140E050E0BE01635F7F4FCE0199
:1023800007960E94230A63E271E0CE0101960E9443
:10239000E70ABE016F5F7F4FCE0107960E94970844
:1023A0006C01CE0101960E94800ADD24960140E076
:1023B00050E0BE01695F7F4FCE0101960E94230A63
:1023C000CE0101960E942D08062FCE0101960E9493
:1023D000800AA6014F5F5F4FBE01695F7F4FCE014C
:1023E00001960E944D07CE0101960E942D08C62E2F
:1023F000CE0101960E94800A10E004521D4FF801A0
:102400008081882309F442C10E94DD02D82E8C15F8
:1024100009F43CC161E0C61260E0F80180810E94CD
:102420000603F8018081882319F00E94DD02F82E4E
:10243000DF1039C12BC169E471E0CE0101960E9421
:10244000E70ACE0101960E941008182FCE010196CE
:102450000E94800A112309F4AAC068E287E694E08A
:102460000E94B108AC014F5F5F4F67E674E0CE0198
:1024700049960E944D0769E2CE0149960E94B10833
:102480009C0140E050E0BE01675E7F4FCE01439665
:102490000E94230A63E271E0CE0101960E94E70ADE
:1024A000BE016F5F7F4FCE0143960E9497088C015B
:1024B000CE0101960E94800A1127980140E050E069
:1024C000BE016D5E7F4FCE0101960E94230ACE01B0
:1024D00001960E942D08D62ECE0101960E94800AF8
:1024E000A8014F5F5F4FBE016D5E7F4FCE010D961D
:1024F0000E944D076D2D70E0FB01E452FD4F80817D
:10250000811107C06DE171E08BE493E00E94110B33
:1025100043C086E0869F8001879F100D11240851DB
:102520001C4FB801CE0107960E94DE0ABE01635F10
:102530007F4FCE0107960E94CA08811135C2BE01A5
:10254000635F7F4FC8010E94690AB801CE010196FE
:102550000E94DE0ABE016F5F7F4FCE0107960E9488
:10256000CA088111A9C10AC061E0C61260E08D2DC0
:102570000E94060361E08D2D0E9436036AE171E03E
:102580008BE493E00E94110BCE0101960E94800A19
:10259000CE0107960E94800ACE010D960E94800A05
:1025A000CE0143960E94800ACE014996FAC16CE39F
:1025B00071E0CE0101960E94E70ACE0101960E94C9
:1025C0001008182FCE0101960E94800A112309F4E9
:1025D00077C068E287E694E00E94B108AC014F5FE3
:1025E0005F4F67E674E0CE010D960E944D0769E2E9
:1025F000CE010D960E94B1089C0140E050E0BE0162
:10260000635F7F4FCE0107960E94230A63E271E069
:10261000CE0101960E94E70ABE016F5F7F4FCE0197
:1026200007960E9497086C01CE0101960E94800ACD
:10263000DD24960140E050E0BE01695F7F4FCE018E
:1026400001960E94230ACE0101960E942D08162FA2
:10265000CE0101960E94800AA6014F5F5F4FBE0126
:10266000695F7F4FCE0101960E944D07CE01019612
:102670000E942D08062FCE0101960E94800AE12FAC
:10268000F0E0E452FD4F8081811103C06DE171E003
:102690000CC08017D9F3008360E00E94360361E02C
:1026A000802F0E9436036AE171E08BE493E00E9480
:1026B000110BCE0107960E94800ACE010D9671C1C2
:1026C00062E371E0CE0101960E94E70ACE01019615
:1026D0000E941008182FCE0101960E94800A112333
:1026E00009F4EDC068E287E694E00E94B108AC010D
:1026F0004F5F5F4F67E674E0CE0149960E944D0739
:1027000069E2CE0149960E94B1089C0140E050E088
:10271000BE01675E7F4FCE0143960E94230A63E2AB
:1027200071E0CE0101960E94E70ABE016F5F7F4F04
:10273000CE0143960E9497088C01CE0101960E941B
:10274000800A1127980140E050E0BE016D5E7F4F86
:10275000CE0101960E94230ACE0101960E942D0807
:10276000D62ECE0101960E94800A6CE472E0CE0162
:102770000D960E94E70AA8014F5F5F4FBE016D5E94
:102780007F4FCE0101960E944D07BE016F5F7F4FC4
:10279000CE010D960E94FC08CE0101960E94800A8F
:1027A00063E271E0CE0101960E94E70ABE016F5F0D
:1027B0007F4FCE010D960E9497088C01CE010196A5
:1027C0000E94800A1127980140E050E0BE01635F3B
:1027D0007F4FCE0107960E94230AA8014F5F5F4FEB
:1027E000BE01635F7F4FCE0101960E944D07BE017F
:1027F0006F5F7F4FCE010D960E94FC08CE010196BF
:102800000E94800A63E271E0CE0101960E94E70A0D
:10281000BE016F5F7F4FCE010D960E9497088C011D
:10282000CE0101960E94800A9801332740E050E0D3
:10283000BE01635F7F4FCE0101960E94230ACE0145
:1028400001960E942D08C62ECE0101960E94800A94
:10285000ECEDF2E020E030E08191811124C0C9016B
:1028600084529D4F5C01FC01D08286E0829F8001F2
:10287000839F100D112408511C4FBE01695F7F4FCB
:10288000C8010E94690AB801CE0101960E94DE0AC1
:10289000BE01695F7F4FCE0101960E94CA08811177
:1028A00063CEF50108C02F5F3F4F26303105A1F6FA
:1028B0001092DC0279C010826DE171E061CE65E2B8
:1028C00071E0CE0101960E94E70ACE0101960E94B6
:1028D0001008182FCE0101960E94800A112309F4D6
:1028E00049C068E287E694E00E94B108AC014F5FFE
:1028F0005F4F67E674E0CE0107960E944D0769E2DC
:10290000CE0107960E94B1089C0140E050E0BE0154
:10291000695F7F4FCE0101960E94230ACE01019686
:102920000E942D0870E0FB01E452FD4F108111114F
:1029300003C06DE171E013C0108226E0269FC00144
:10294000279F900D11246CE472E088519C4F0E94E7
:102950000C0A60E0812F0E9436036AE171E08BE48B
:1029600093E00E94110BCE0101960E94800ACE01D5
:10297000079617C06BE272E0CE0101960E94E70A4B
:1029800067E674E0CE0101960E94A30965E372E058
:102990000E948A09BC018BE493E00E94250BCE01C2
:1029A00001960E94800A9AC86DE171E08BE493E081
:1029B0000E94110BEDCDCF93DF93CCE0D4E02697AE
:1029C000CE010E94800A23E0C83ED207C1F7C0E3CF
:1029D000D4E02697CE010E94800A84E0CC30D8074C
:1029E000C1F780E394E00E94800A86E394E00E94AD
:1029F000800A8CE394E00E94800A88EF91E0909333
:102A00004304809342048091DA029091DB02825465
:102A1000944071F4E0915504F091560490818091B6
:102A200057048095892380831092DB021092DA028A
:102A300081E694E00E94800A87E694E0DF91CF91DE
:102A40000C94800ACF92DF92EF92FF92CF93DF93A4
:102A500010924E0310924D0398EEC92E93E0D92E9A
:102A6000E12CF12CC0924F03D0925003E09251031D
:102A7000F092520386EE91E090934C0380934B03C7
:102A800085EC90E0909358038093570384EC90E09A
:102A900090935A038093590380EC90E090935C03E9
:102AA00080935B0381EC90E090935E0380935D03E1
:102AB00082EC90E09093600380935F0386EC90E05B
:102AC00090936203809361031092640310926503F4
:102AD00010926603109267036CE472E087E694E05C
:102AE0000E94E70A6CE472E081E694E00E94E70A43
:102AF0001092450410924404C0924604D0924704B8
:102B0000E0924804F092490488EF91E090934304E6
:102B100080934204109259041092580410925B045E
:102B200010925A0410925D0410925C0410925F049B
:102B300010925E04609160046E7F6D7F609360040C
:102B40006695617081E068278BE00E94060361E072
:102B50008BE00E943603E9ECF0E0E491E09352044C
:102B6000E5EBF0E0E491F0E0EE0FFF1FEA56FF4FD7
:102B700085919491909354048093530460E08AE08B
:102B80000E9436038091600481FD04C061E08AE008
:102B90000E9406038AE080934E04E8ECF0E0E491A2
:102BA000E0934F04E4EBF0E0E491F0E0EE0FFF1F60
:102BB000E056FF4F85919491909351048093500477
:102BC0006CE472E08CE394E00E94E70A60ED72E04E
:102BD00086E394E00E94E70A6CE472E080E394E00C
:102BE0000E94E70ACCE0D4E06CE472E0CE010E94DF
:102BF000E70A269684E0C033D807B1F7C8EED3E0E1
:102C00006CE472E0CE010E94E70A269684E0CC30A4
:102C1000D807B1F7DF91CF91FF90EF90DF90CF9081
:102C200008951F93FC0199278827BC01E89411910E
:102C30001032E9F3193010F01E30C8F31B3251F096
:102C40001D3249F4689406C00E944316610F711D3D
:102C5000811D911D119110531A30B0F33EF49095DF
:102C60008095709561957F4F8F4F9F4F1F9108956D
:102C7000BB274A3031F4992322F4BDE29095819527
:102C80009F4F0C946416592F482F372F262F660F0D
:102C9000771F881F991F660F771F881F991F620F64
:102CA000731F841F951F660F771F881F991F089534
:102CB0004532510520F4423010F00C946316FB01AC
:102CC0001082CB010895BB27FB015527AA27880F47
:102CD000991FAA1FA41710F0A41B83955051B9F790
:102CE000A05DAA3308F0A95DA193009779F7B1110F
:102CF000B1931192CB010C94861691110C949616F7
:102D0000803219F089508550C8F70895DC01FC0124
:102D1000672F71917723E1F7329704C07C916D930F
:102D200070836291AE17BF07C8F30895992788276B
:102D300008952F923F924F925F926F927F928F925F
:102D40009F92AF92BF92CF92DF92EF92FF920F933A
:102D50001F93CF93DF93CDB7DEB7CA1BDB0B0FB644
:102D6000F894DEBF0FBECDBF09942A883988488801
:102D70005F846E847D848C849B84AA84B984C88497
:102D8000DF80EE80FD800C811B81AA81B981CE0F8E
:102D9000D11D0FB6F894DEBF0FBECDBFED01089573
:102DA00097FB072E16F4009407D077FD09D00E94F8
:102DB000EA1607FC05D03EF4909581959F4F089543
:102DC000709561957F4F0895EE0FFF1F0590F49168
:102DD000E02D0994AA1BBB1B51E107C0AA1FBB1F12
:102DE000A617B70710F0A61BB70B881F991F5A9597
:102DF000A9F780959095BC01CD010895CF93DF93FD
:102E00008230910510F482E090E0E0916F04F0913F
:102E1000700420E030E0C0E0D0E0309711F1408154
:102E2000518148175907C0F04817590761F482814A
:102E30009381209719F09B838A832BC09093700411
:102E400080936F0426C02115310519F042175307EE
:102E500018F49A01BE01DF01EF010280F381E02D39
:102E6000DCCF2115310509F1281B390B2430310540
:102E700090F412968D919C9113976115710521F034
:102E8000FB019383828304C09093700480936F044A
:102E9000FD01329644C0FD01E20FF31F819391932F
:102EA000225031092D933C933AC020916D0430910A
:102EB0006E04232B41F420910201309103013093E1
:102EC0006E0420936D0420910001309101012115C1
:102ED000310541F42DB73EB74091040150910501F1
:102EE000241B350BE0916D04F0916E04E217F3079B
:102EF000A0F42E1B3F0B2817390778F0AC014E5F6A
:102F00005F4F2417350748F04E0F5F1F50936E0434
:102F100040936D048193919302C0E0E0F0E0CF0113
:102F2000DF91CF9108950F931F93CF93DF93009775
:102F300009F48CC0FC0132971382128200916F0455
:102F4000109170040115110581F420813181820FE7
:102F5000931F20916D0430916E042817390779F57D
:102F6000F0936E04E0936D0471C0D80140E050E02E
:102F7000AE17BF0750F412962D913C911397AD01F7
:102F80002115310509F1D901F3CF9D01DA01338310
:102F9000228360817181860F971F8217930769F4DE
:102FA000EC0128813981260F371F2E5F3F4F318377
:102FB00020838A819B8193838283452B29F4F0931C
:102FC0007004E0936F0442C01396FC93EE93129743
:102FD000ED01499159919E01240F351FE217F30726
:102FE00071F480819181840F951F029611969C93B4
:102FF0008E938281938113969C938E931297E0E037
:10300000F0E0D80112968D919C911397009719F0DA
:10301000F8018C01F6CF8D919C9198012E5F3F4F66
:10302000820F931F20916D0430916E042817390789
:1030300069F4309729F41092700410926F0402C062
:103040001382128210936E0400936D04DF91CF916E
:103050001F910F910895A0E0B0E0E1E3F8E10C9436
:103060009D16EC01009721F4CB010E94FE16B8C01A
:10307000FC01E60FF71F9C0122503109E217F3070C
:1030800008F4ACC0D9010D911C91119706171707D0
:10309000B0F00530110508F49FC0C80104978617E9
:1030A000970708F499C002501109061B170B0193EA
:1030B00011936D937C93CF010E9493178DC05B0198
:1030C000A01AB10A4C01800E911EA0916F04B0911C
:1030D000700440E050E0E12CF12C109709F44AC054
:1030E000A815B905D1F56D907C901197630182E028
:1030F000C80ED11CCA14DB0480F1A3014A195B0974
:103100006A0182E0C80ED11C1296BC9012971396E9
:10311000AC91B5E0CB16D10440F0B282A3835183C9
:103120004083D9016D937C930AC00E5F1F4FC3018A
:10313000800F911FF90191838083EB2DFA2FE11409
:10314000F10431F0D7011396FC93EE93129744C02B
:10315000F0937004E0936F043FC08D919C911197A0
:103160004817590708F4AC017D0112960D90BC91E7
:10317000A02DB3CF80916D0490916E0488159905B0
:10318000E1F446175707C8F48091000190910101BE
:10319000009741F48DB79EB740910401509105010D
:1031A000841B950BE817F907C8F4F0936E04E093BD
:1031B0006D04F901718360830FC0CB010E94FE167C
:1031C0007C01009759F0A801BE010E940219CE01AE
:1031D0000E949317C70104C0CE0102C080E090E0B6
:1031E000CDB7DEB7EEE00C94B91681E090E0F8942C
:1031F0000C944E199111089581548A5108F4805EFF
:10320000855A0895FB01DC0102C001900D924150E6
:103210005040D8F70895FC018191861721F088234A
:10322000D9F7992708953197CF010895FB01DC0163
:103230008D91019080190110D9F3990B0895FB012C
:10324000DC0101900D920020E1F70895FB01DC0103
:103250004150504030F08D910190801919F40020B8
:10326000B9F7881B990B0895FB0151915523A9F0DB
:10327000BF01DC014D9145174111E1F759F4CD0132
:103280000190002049F04D9140154111C9F3FB0117
:103290004111EFCF81E090E00197089510E0CAE678
:1032A000D0E004C0FE010E94E4162196CB36D1077F
:0632B000C9F7F894FFCFFE
:1032B600000071048000537461746500203D200095
:1032C60053656E736F72004964004F4B004552524E
:1032D6004F52002C0044656C6574655377697463BE
:1032E6006800416464537769746368005365745376
:1032F600776974636850696E0053657453776974AF
:1033060063684E616D6500536574537769746368CD
:1033160053746174650044656C65746553656E73BA
:103326006F720041646453656E736F720053657407
:1033360053656E736F725479706500536574536587
:103346006E736F7250696E0053657453656E736F5A
:10335600724E616D6500476574416C6C5377697494
:103366006368657300476574416C6C53656E736F73
:10337600727300547970650053656E736F727300D3
:103386004E616D650050696E0053776974636865B8
:10339600730000000000FD00B30A95004401C6005A
:1033A600A400B80000000000CD01B30A5B02CC0106
:1033B60021023902B401446F6F722053656E736F38
:1033C60072005049522053656E736F72004C6564EB
:1033D6002053776974636800415400436F6D6D61D3
:1033E6006E6420270027206E6F74207265636F67F6
:1033F6006E697A65642E004F4B000D0A0041542B0E
:10340600434950534855540041542B4349504D5558
:10341600583D300041542B43474154543D310041FF
:10342600542B435354543D22696E7465726E657411
:10343600220041542B43494943520041542B4349EE
:103446004653520041542B43495053544152543D24
:1034560022544350222C2238312E3230302E35372A
:103466002E3234222C2236363636220053656375C8
:10347600726974790041542B43495053454E4400B8
:083486005B2D2D3E5D200000CE
:107E0000112484B714BE81FFF0D085E080938100F7
:107E100082E08093C00088E18093C10086E0809377
:107E2000C20080E18093C4008EE0C9D0259A86E02C
:107E300020E33CEF91E0309385002093840096BBD3
:107E4000B09BFECF1D9AA8958150A9F7CC24DD24C4
:107E500088248394B5E0AB2EA1E19A2EF3E0BF2EE7
:107E6000A2D0813461F49FD0082FAFD0023811F036
:107E7000013811F484E001C083E08DD089C08234E0
:107E800011F484E103C0853419F485E0A6D080C0E4
:107E9000853579F488D0E82EFF2485D0082F10E0AE
:107EA000102F00270E291F29000F111F8ED06801E7
:107EB0006FC0863521F484E090D080E0DECF843638
:107EC00009F040C070D06FD0082F6DD080E0C81688
:107ED00080E7D80618F4F601B7BEE895C0E0D1E017
:107EE00062D089930C17E1F7F0E0CF16F0E7DF06D8
:107EF00018F0F601B7BEE89568D007B600FCFDCFD4
:107F0000A601A0E0B1E02C9130E011968C91119780
:107F100090E0982F8827822B932B1296FA010C0160
:107F200087BEE89511244E5F5F4FF1E0A038BF0790
:107F300051F7F601A7BEE89507B600FCFDCF97BE46
:107F4000E89526C08437B1F42ED02DD0F82E2BD052
:107F50003CD0F601EF2C8F010F5F1F4F84911BD097
:107F6000EA94F801C1F70894C11CD11CFA94CF0C13
:107F7000D11C0EC0853739F428D08EE10CD085E9AC
:107F80000AD08FE07ACF813511F488E018D01DD067
:107F900080E101D065CF982F8091C00085FFFCCF94
:107FA0009093C60008958091C00087FFFCCF809118
:107FB000C00084FD01C0A8958091C6000895E0E648
:107FC000F0E098E1908380830895EDDF803219F02E
:107FD00088E0F5DFFFCF84E1DECF1F93182FE3DFCA
:107FE0001150E9F7F2DF1F91089580E0E8DFEE27F6
:047FF000FF270994CA
:027FFE00040479
:0400000300007E007B
:00000001FF