:100000000C9463000C948B000C948B000C948B006C
:100010000C948B000C948B000C948B000C948B0034
:100020000C948B000C948B000C948B000C948B0024
:100030000C948B000C948B000C948B000C948B0014
:100040000C941A060C948B000C942E050C94080545
:100050000C948B000C948B000C948B000C948B00F4
:100060000C948B000C948B000000000024002700EF
:100070002A0000000000250028002B0000000000DE
:1000800023002600290004040404040404040202DA
:100090000202020203030303030301020408102007
:1000A0004080010204081020010204081020000012
:1000B0000008000201000003040700000000000027
:1000C00000009310FE1011241FBECFEFD8E0DEBF5A
:1000D000CDBF23E0A4E3B2E001C01D92A135B20779
:1000E000E1F712E0A0E0B1E0ECE9F8E202C005902F
:1000F0000D92A433B107D9F710E0C2E6D0E004C0F6
:100100002197FE010E94EB11C136D107C9F70E9469
:100110007D060C9441140C9400000895CF92DF9258
:10012000EF92FF920F931F93CF93DF936C017A01AD
:100130008B01C0E0D0E0CE15DF0589F0D8016D91CC
:100140008D01D601ED91FC910190F081E02DC60169
:100150000995892B11F47E0102C02196ECCFC701CD
:10016000DF91CF911F910F91FF90EF90DF90CF9093
:1001700008950E94E813CF93DF93EC018881998161
:10018000009711F00E948612198218821D821C822B
:100190001B821A82DF91CF910895CF93DF93FC01E8
:1001A000448155816081718183E592E00E948E00D7
:1001B000EC0142E050E060E372E083E592E00E94EF
:1001C0008E008C0F9D1FDF91CF910895CF93DF9309
:1001D000009779F0FC0101900020E9F73197AF0119
:1001E000481B590BBC0183E592E00E948E00EC0194
:1001F00002C0C0E0D0E042E050E060E372E083E59E
:1002000092E00E948E008C0F9D1FDF91CF91089588
:10021000CF92DF92FF920F931F93CF93DF93F82E2D
:100220008DE4C82E82E0D82EEB018601802F8C1938
:100230008F1550F4F80181918F01882319F00E94E5
:10024000600588832196F2CFDF91CF911F910F91A6
:10025000FF90DF90CF900895EF92FF920F931F933E
:10026000CF93DF93C0913E03D0913F03FC01008107
:1002700011818991882399F0082E000C990B0E9416
:10028000ED137C01F80181918F01082E000C990B70
:100290000E94ED13E816F90661F380E001C081E0E9
:1002A000DF91CF911F910F91FF90EF900895FC0186
:1002B00044815581809142039091430384179507AF
:1002C00080F080913E0390913F03009751F0608150
:1002D00071816115710529F00E94191421E0892BA3
:1002E00009F020E0822F0895FC0180819181009720
:1002F00011F00C941E1160E070E0CB010895CF93D3
:10030000DF93FC0124813581232B71F0FB01DC019B
:10031000CD91DC9160817181CE010E9427140097FC
:1003200019F08C1B9D0B02C08FEF9FEFDF91CF91D7
:100330000895CF93DF93FC0124813581232B69F04D
:10034000C081D181062E000C770BCE010E94FE13D6
:10035000009719F08C1B9D0B02C08FEF9FEFDF9170
:10036000CF910895FC0124813581FB0144815581A1
:100370002417350721F5FC0180819181FB01608103
:100380007181009719F061157105A1F4611571056E
:1003900049F0232BB1F0FB01808190E0919581958C
:1003A00091090AC0009769F0232B59F0FC01808164
:1003B00090E002C00E94091421E0892B19F020E08E
:1003C00001C021E0822F08950F931F93CF93DF93F5
:1003D0008C01EB01FC01808191810097B1F0688173
:1003E00079816115710579F0428153812C813D81BC
:1003F0004217530740F00E9412148C819D81F8012E
:100400009583848313C00E94861288819981F801A4
:10041000918380838A819B81938382838C819D8158
:1004200095838483198218821B821A821D821C8202
:10043000DF91CF911F910F9108950F931F93CF9349
:10044000DF93EC0188819981009729F02A813B8113
:100450002617370788F48B016F5F7F4F0E941E13AA
:10046000009761F0998388831B830A832C813D81E7
:10047000232B11F4FC01108281E001C080E0DF91A8
:10048000CF911F910F910895EF92FF920F931F93B9
:10049000CF93DF93FC01248135816115710511F43F
:1004A00080E019C041155105A9F07B01EC018A01DA
:1004B000020F131FB8010E941D02882389F32881AF
:1004C00039818C819D81B701820F931F0E94121484
:1004D0001D830C8381E0DF91CF911F910F91FF90DD
:1004E000EF900895CF93DF93EC016115710561F0F2
:1004F000FB0101900020E9F73197AF01461B570B34
:100500000E944402811103C0CE010E94BB00CE01B3
:10051000DF91CF910895CF93DF93EC01FB014481EC
:100520005581608171810E944402811103C0CE0116
:100530000E94BB00CE01DF91CF910895CF93DF934E
:1005400000D0CDB7DEB769831A8241E050E0BE012A
:100550006F5F7F4F0E9444020F900F90DF91CF9109
:100560000895CF93DF93EC010E949E02811103C096
:10057000CE010E94BB00CE01DF91CF910895EF9292
:10058000FF920F931F93CF93DF93EC017B018A01BE
:10059000BA010E941D02811104C0CE010E94BB005D
:1005A00007C01D830C83B701888199810E941214B2
:1005B000CE01DF91CF911F910F91FF90EF900895A1
:1005C000CF93DF93EC016115710559F0FB010190A8
:1005D0000020E9F73197AF01461B570B0E94BF027D
:1005E00002C00E94BB00CE01DF91CF910895CF934E
:1005F000DF93EC01FB018617970761F06081718141
:100600006115710529F0448155810E94BF0202C025
:100610000E94BB00CE01DF91CF910895FC01808143
:1006200091810C9486120F931F93CF93DF93CDB7D4
:10063000DEB729970FB6F894DEBF0FBECDBF8C0191
:10064000862FF80111821082138212821582148281
:1006500050E0BE016F5F7F4F90E00E946511BE01C8
:100660006F5F7F4FC8010E94E00229960FB6F89491
:10067000DEBF0FBECDBFDF91CF911F910F910895C7
:10068000FC011182108213821282158214820C9452
:10069000F702FC01118210821382128215821482E9
:1006A0006115710551F0FB0101900020E9F73197C8
:1006B000AF01461B570B0C94BF020895BF92CF9217
:1006C000DF92EF92FF920F931F93CF93DF937C0102
:1006D0006B018A01E9012417350720F4812F890174
:1006E000C42FD82F62E372E0C7010E944903D601EC
:1006F00014968D919C91159708171907D0F48C17B3
:100700009D0708F4EC01D601ED91FC911197EC0FD7
:10071000FD1FB08010824D915C91BA01600F711F76
:10072000C7010E94E002D601ED91FC91EC0FFD1F84
:10073000B082C701DF91CF911F910F91FF90EF9091
:10074000DF90CF90BF900895FC01918D828D981716
:1007500061F0828DDF01A80FB11D5D968C91928DA5
:100760009F5F9F73928F90E008958FEF9FEF0895A2
:10077000FC01918D828D981731F0828DE80FF11D6B
:10078000858D90E008958FEF9FEF0895FC01918D86
:10079000228D892F90E0805C9F4F821B91098F737F
:1007A0009927089583E592E00E94C60321E0892BF2
:1007B00009F420E0822F0895FC01848DDF01A80F49
:1007C000B11DA35ABF4F2C91848D90E001968F7379
:1007D0009927848FA689B7892C93A089B1898C9198
:1007E00080648C93938D848D981306C00288F3895E
:1007F000E02D80818F7D80830895EF92FF920F938B
:100800001F93CF93DF93EC0181E0888F9B8D8C8DBC
:10081000981305C0E889F989808185FD24C0F62EEA
:100820000B8D10E00F5F1F4F0F731127E02E8C8D83
:10083000E8120CC00FB607FCFACFE889F98980816D
:1008400085FFF5CFCE010E94DC03F1CF8B8DFE0139
:10085000E80FF11DE35AFF4FF0820B8FEA89FB8905
:100860008081806207C0EE89FF896083E889F98909
:1008700080818064808381E090E0DF91CF911F913F
:100880000F91FF90EF900895CF93DF93EC01888D47
:100890008823C9F0EA89FB89808185FD05C0A88984
:1008A000B9898C9186FD0FC00FB607FCF5CF80810A
:1008B00085FFF2CFA889B9898C9185FFEDCFCE0154
:1008C0000E94DC03E7CFDF91CF910895833081F060
:1008D00028F4813099F08230A1F008958730A9F092
:1008E0008830B9F08430D1F4809180008F7D03C0CE
:1008F000809180008F7780938000089584B58F77F2
:1009000002C084B58F7D84BD08958091B0008F773B
:1009100003C08091B0008F7D8093B0000895AF92A6
:10092000BF92DF92EF92FF920F931F93CF93DF93CB
:10093000DD24D39483E592E00E94C603892B09F459
:1009400057C083E592E00E94A403C82F682F8EE36E
:1009500093E00E949E02CA3069F7E0903E03F09057
:100960003F03E114F10409F440C0C0914203D09167
:1009700043032097D1F1570185018FEFA81AB80AD8
:10098000F8018081082E000C990B0E948A11892B96
:1009900099F72197CE0DDF1D8881082E000C990B49
:1009A0000E948A11892B89F4AE014F5F5F4F401B73
:1009B000510B5093430340934203E016F10650F469
:1009C000B801C7010E94F51305C0C017D10760F335
:1009D0002197E2CFE0913E03F0913F0380914203E3
:1009E00090914303E80FF91F1082D0923A02A2CFF0
:1009F000DF91CF911F910F91FF90EF90DF90BF900B
:100A0000AF9008950E94D20381110C948F04089531
:100A10001F920F920FB60F9211242F933F934F9373
:100A20005F936F937F938F939F93AF93BF93EF9356
:100A3000FF9383E592E00E94DC03FF91EF91BF9169
:100A4000AF919F918F917F916F915F914F913F9166
:100A50002F910F900FBE0F901F9018951F920F921D
:100A60000FB60F9211242F938F939F93EF93FF93C1
:100A7000E0916302F09164028081E0916902F0915B
:100A80006A0282FD12C0908180916C028F5F8F7329
:100A900020916D02821751F0E0916C02F0E0ED5A66
:100AA000FD4F958F80936C0201C08081FF91EF9183
:100AB0009F918F912F910F900FBE0F901F901895BF
:100AC000CF93DF93282F30E0F901E255FF4F849157
:100AD000F901E656FF4FD491F901EA57FF4FC4914F
:100AE000CC2391F081110E946604EC2FF0E0EE0F10
:100AF000FF1FE458FF4FA591B491EC91ED2381E0E5
:100B000090E021F480E002C080E090E0DF91CF919E
:100B100008951F93CF93DF93282F30E0F901E2551A
:100B2000FF4F8491F901E656FF4FD491F901EA573E
:100B3000FF4FC491CC23C9F0162F81110E94660487
:100B4000EC2FF0E0EE0FFF1FEE58FF4FA591B49190
:100B50008FB7F894111105C09C91ED2FE095E92312
:100B600002C0EC91ED2BEC938FBFDF91CF911F91E1
:100B70000895CF93DF9390E0FC01E656FF4F249158
:100B8000FC01EA57FF4F8491882361F190E0880FC0
:100B9000991FFC01E859FF4FC591D491FC01EE5813
:100BA000FF4FA591B491611109C09FB7F894888156
:100BB000209582238883EC912E230BC0623061F450
:100BC0009FB7F8943881822F809583238883EC9196
:100BD0002E2B2C939FBF06C08FB7F894E8812E2B45
:100BE00028838FBFDF91CF9108953FB7F89480910C
:100BF000490390914A03A0914B03B0914C0326B551
:100C0000A89B05C02F3F19F00196A11DB11D3FBF44
:100C1000BA2FA92F982F8827820F911DA11DB11DD2
:100C2000BC01CD0142E0660F771F881F991F4A95CE
:100C3000D1F708951F920F920FB60F9211242F93A0
:100C40003F938F939F93AF93BF9380914503909170
:100C50004603A0914703B09148033091440323E039
:100C6000230F2D3720F40196A11DB11D05C026E8E4
:100C7000230F0296A11DB11D2093440380934503C9
:100C800090934603A0934703B09348038091490390
:100C900090914A03A0914B03B0914C030196A11D82
:100CA000B11D8093490390934A03A0934B03B093E3
:100CB0004C03BF91AF919F918F913F912F910F90D6
:100CC0000FBE0F901F9018950C94A611E82FF0E01E
:100CD000EC5CFD4F8081882319F00E946005089527
:100CE0000895CF93DF93EC01FB01248135810E94AD
:100CF0005E03CE01DF91CF910895CF93DF93CDB7FF
:100D0000DEB7E7970FB6F894DEBF0FBECDBF78947D
:100D100084B5826084BD84B5816084BD85B5826000
:100D200085BD85B5816085BD80916E0081608093B1
:100D30006E0010928100809181008260809381001A
:100D4000809181008160809381008091800081602A
:100D5000809380008091B10084608093B100809185
:100D6000B00081608093B00080917A0084608093AD
:100D70007A0080917A00826080937A0080917A0074
:100D8000816080937A0080917A00806880937A00F5
:100D90001092C10000E010E060E0C8010E9464060B
:100DA0000F5F1F4F011524E01207B1F788E0809311
:100DB0004D0262EF71E084E193E00E94E002109244
:100DC000470287E080934E026EEF71E08AE193E084
:100DD0000E94E00281E0809348020DE412E0A6E068
:100DE000FA2EF00EF80181918F01882319F060E04E
:100DF0000E94B905F012F6CF61E472E086E00E942D
:100E0000080186E08093340269E072E080EF92E0AE
:100E10000E94E00204E312E0F6E0FF2EF00EF8017B
:100E200081918F01882319F061E00E94B905F012C9
:100E3000F6CF61E086E00E948905EDE4EE2EE2E067
:100E4000FE2E00E010E0F70161917F01611102C008
:100E50006FEF70E0C8010E9464060F5F1F4F0630FD
:100E6000110589F706E010E0F801EC5CFD4F6081A8
:100E7000611102C06FEF70E0C8010E9464060F5F4D
:100E80001F4F0C30110581F70CE010E0F801E35B17
:100E9000FD4F8081882329F0F801E95BFD4F6081D7
:100EA00002C06FEF70E0C8010E9464060F5F1F4F21
:100EB0000231110559F702E110E0F801E35BFD4F43
:100EC0008081882329F0802F0E946606682F02C047
:100ED0006FEF70E0C8010E9464060F5F1F4F08317A
:100EE000110559F764E670E08EE393E00E941D025D
:100EF00064EF71E088E393E00E941D02E0916302D9
:100F0000F091640282E08083E0915F02F0916002E0
:100F10001082E0916102F09162028FEC8083109266
:100F20006B02E0916702F091680286E08083E091B5
:100F30006502F0916602808180618083E0916502A4
:100F4000F0916602808188608083E0916502F09173
:100F50006602808180688083E0916502F09166027C
:100F600080818F7D80836BE372E086E00E940801C0
:100F700061E4E62E62E0F62E7DE4C72E72E0D72E05
:100F800000E010E0F60181916F01882309F48CC024
:100F9000F801E55CFD4F6081F7018081861709F457
:100FA00083C060834AE0CE0101960E9413034AE0A9
:100FB000602FCE0143960E94130369E371E0CE01D6
:100FC00049960E94490366E071E0CE0185960E9431
:100FD0004903BE016B5D7F4FCE014F960E944003D7
:100FE00068E2CE014F960E94B102BE01675E7F4F5C
:100FF0000E948B0265E371E00E947202BE016D5E89
:101000007F4F0E948B0263E371E00E94720264E2F0
:1010100071E00E94720265E371E00E947202BE01FB
:101020006F5F7F4F0E948B0269E20E94B1020E94B3
:10103000CD00CE014F960E940E03CE0185960E94F0
:101040000E03CE0149960E940E03CE0143960E94E4
:101050000E03CE0101960E940E030E94F5052B019E
:101060003C015CE2852E99249394A12CB12C0E9422
:10107000F505DC01CB0184199509A609B709883E5D
:101080009340A105B10558F0F1E08F1A9108A1082D
:10109000B10828EE420E23E0521E611C711C81141F
:1010A0009104A104B10419F70F5F1F4F8FEFE81AE5
:1010B000F80A0630110509F065CF80913A028823BD
:1010C00009F437C18091420390914303892B09F4BD
:1010D00030C164ED71E0CE0101960E944903809118
:1010E0004203909143032D813E818217930709F0BB
:1010F00025C1892B09F420C1CE0101960E942C0143
:10110000182FCE0101960E940E03112309F418C175
:101110006CE371E0CE0143960E944903BE016D5E0F
:101120007F4FCE0101960E94400368E2CE010196F6
:101130000E94B102BC0188E393E00E94F702CE0155
:1011400001960E940E03CE0143960E940E0324E1F5
:10115000C22E23E0D22E3DE4E32E32E0F32E00E057
:1011600010E048E2B42EF7018081882309F4C4C05E
:10117000F801E95BFD4F80811C8A1B8A1E8A1D8A4B
:10118000188E1F8A4AE0BE016F5F7F4F90E00E9479
:101190004511BE016F5F7F4FCE0143960E94E00272
:1011A0004AE0F801EF5BFD4F6081CE0101960E949D
:1011B0001303B601CE0149960E9440034AE0F701AD
:1011C0006081CE014F960E9413034AE0602FCE014A
:1011D00085960E9413031AAA19AA1CAA1BAA1EAA62
:1011E0001DAABBA61CA6BE01655D7F4FCE01C196A0
:1011F0000E94E002BE016F5C7F4FCE018B960E9481
:10120000400369E371E0CE018B960E94720265E3B0
:1012100071E00E947202BE016B5D7F4F0E948B02E3
:1012200063E371E00E9472026FE271E00E94720259
:1012300065E371E00E947202BE01615E7F4F0E9411
:101240008B0263E371E00E9472026AE271E00E9425
:10125000720265E371E00E947202BE01675E7F4F19
:101260000E948B0263E371E00E94720264E271E00B
:101270000E94720265E371E00E947202BE016F5F1C
:101280007F4F0E948B0263E371E00E9472026FE164
:1012900071E00E94720265E371E00E947202BE0179
:1012A0006D5E7F4F0E948B0269E20E94B102FC01D9
:1012B000448155816081718188E393E00E944402FA
:1012C000CE018B960E940E03CE01C1960E940E03A2
:1012D000CE0185960E940E03CE014F960E940E030A
:1012E000CE0149960E940E03CE0101960E940E0384
:1012F000CE0143960E940E030F5F1F4FFFEFEF1AC0
:10130000FF0A26E0C20ED11C0630110509F02BCFD2
:1013100069E288E393E00E949E0288E393E00E94E2
:10132000CD0062E372E08EE393E00E94E00210924F
:101330003A020E94020517CE11E0E3CE10E0E1CEA2
:1013400066EC71E0CE0101960E944903CE01019640
:101350000E945701182FCE0101960E940E031123FF
:1013600009F45FC068E28EE393E00E949901AC014A
:101370004F5F5F4F6EE373E0CE0185960E9471066A
:1013800069E2CE0185960E9499019C0140E050E0FF
:10139000BE016B5D7F4FCE014F960E945E0363E3FB
:1013A00071E0CE0101960E944903BE016F5F7F4F3D
:1013B000CE014F960E947F018C01CE0101960E94C2
:1013C0000E031127980140E050E0BE01615E7F4F9F
:1013D000CE0101960E945E03CE0101960E94740127
:1013E000F62ECE0101960E940E03A8014F5F5F4FBB
:1013F000BE01615E7F4FCE0149960E9471066F2D3E
:1014000070E0FB01E35BFD4F8081882309F43FC45A
:1014100086E0869F8001879F100D11240C5E1C4F73
:1014200043C469EB71E0CE0101960E944903CE01ED
:1014300001960E945701182FCE0101960E940E03BB
:10144000112309F46DC068E28EE393E00E949901D4
:10145000AC014F5F5F4F6EE373E0CE0149960E948F
:10146000710669E2CE0149960E9499019C0140E013
:1014700050E0BE01675E7F4FCE0143960E945E033F
:1014800063E371E0CE0101960E944903BE016F5FE4
:101490007F4FCE0143960E947F017C01CE010196D1
:1014A0000E940E03FF24970140E050E0BE016D5EF4
:1014B0007F4FCE0101960E945E03CE0101960E94ED
:1014C0007401162FCE0101960E940E03A7014F5FF3
:1014D0005F4FBE016D5E7F4FCE0101960E94710687
:1014E000CE0101960E947401062FCE0101960E9442
:1014F0000E03E12FF0E0E35BFD4F1081112309F4AF
:1015000086C4101709F483C4008361E472E086E0A6
:101510000E94080161E0812F0E94B90560E081C44A
:101520006BEA71E0CE0101960E944903CE0101965B
:101530000E945701182FCE0101960E940E0311231D
:1015400009F469C068E28EE393E00E949901AC015E
:101550004F5F5F4F6EE373E0CE0149960E947106C4
:1015600069E2CE0149960E9499019C0140E050E059
:10157000BE01675E7F4FCE0143960E945E0363E328
:1015800071E0CE0101960E944903BE016F5F7F4F5B
:10159000CE0143960E947F017C01CE0101960E94FC
:1015A0000E03FF24970140E050E0BE016D5E7F4FC7
:1015B000CE0101960E945E03CE0101960E94740145
:1015C000162FCE0101960E940E03A7014F5F5F4FB9
:1015D000BE016D5E7F4FCE0101960E947106CE0165
:1015E00001960E947401CE0101966FAB0E940E031A
:1015F000812F90E0FC01E35BFD4F20816FA9222346
:1016000009F405C4FC01E95BFD4F21E0613009F0FC
:1016100020E0208309C461EA71E0CE0101960E94B6
:101620004903CE0101960E945701182FCE01019661
:101630000E940E03112309F4F9C068E28EE393E0DF
:101640000E949901AC014F5F5F4F6EE373E0CE01E2
:1016500085960E94710669E2CE0185960E949901E5
:101660009C0140E050E0BE016B5D7F4FCE014F9684
:101670000E945E0363E371E0CE0101960E9449037C
:10168000BE016F5F7F4FCE014F960E947F018C019C
:10169000CE0101960E940E031127980140E050E010
:1016A000BE01615E7F4FCE0101960E945E03CE01B6
:1016B00001960E947401F62ECE0101960E940E033F
:1016C00062E372E0CE0149960E944903A8014F5F90
:1016D0005F4FBE01615E7F4FCE0101960E94710691
:1016E000BE016F5F7F4FCE0149960E94E401CE019B
:1016F00001960E940E0363E371E0CE0101960E9401
:101700004903BE016F5F7F4FCE0149960E947F0162
:101710008C01CE0101960E940E031127980140E032
:1017200050E0BE01675E7F4FCE0143960E945E038C
:10173000A8014F5F5F4FBE01675E7F4FCE010196EC
:101740000E947106BE016F5F7F4FCE0149960E94D5
:10175000E401CE0101960E940E0363E371E0CE0125
:1017600001960E944903BE016F5F7F4FCE014996EB
:101770000E947F018C01CE0101960E940E03980108
:10178000332740E050E0BE01675E7F4FCE010196F7
:101790000E945E03CE0101960E947401E62ECE01E6
:1017A00001960E940E03EDE4F2E000E010E081916A
:1017B000811126C0C801835B9D4F5C01FC01F08252
:1017C00026E0209FC001219F900D11249C012C5EDA
:1017D0003C4F6901BE016D5E7F4FC9010E94F70257
:1017E000B601CE0101960E944003BE016D5E7F4F9F
:1017F000CE0101960E94B20181110AC0F5011AC4FE
:101800000F5F1F4F0630110591F610924D0286C4EE
:10181000F801E95BFD4F81E0E81280E0808361E43C
:1018200072E083E00E94080160E068C264E971E050
:10183000CE0101960E944903CE0101960E945701F4
:10184000182FCE0101960E940E03112309F444C003
:1018500068E28EE393E00E949901AC014F5F5F4F15
:101860006EE373E0CE0143960E94710669E2CE01F9
:1018700043960E9499019C0140E050E0BE016D5EDC
:101880007F4FCE0101960E945E03CE0101960E9419
:101890007401062F10E0F801E35BFD4F808188237F
:1018A00009F406C4108226E0209FC001219F900DFC
:1018B000112462E372E08C5E9C4F0E94E002F8010A
:1018C000E95BFD4F1082F801EF5BFD4F1082F801DC
:1018D000E55CFD4F108200C465E871E0CE01019621
:1018E0000E94490380914203909143032D813E81E0
:1018F0008217930749F4892B31F0CE0101960E949B
:101900002C01182F01C011E0CE0101960E940E0398
:10191000112309F4D0C06DE071E0CE0143960E941E
:101920004903BE016D5E7F4FCE0101960E944003C8
:1019300068E2CE0101960E94B102BC0188E393E007
:101940000E94F702CE0101960E940E03CE0143963B
:101950000E940E0380EFC82E82E0D82E94E3E92E79
:1019600092E0F92E10E008E2F7018081882309F463
:1019700097C0812F0E9466064AE0682FCE0101962B
:101980000E941303B601CE0143960E9440034AE031
:10199000F7016081CE0149960E9413034AE0612F4E
:1019A000CE014F960E9413031CA61BA61EA61DA6C1
:1019B00018AA1FA60DA31EA2BE016B5D7F4FCE010C
:1019C0008B960E94E002BE01655D7F4FCE01859639
:1019D0000E94400369E371E0CE0185960E94720285
:1019E00065E371E00E947202BE01615E7F4F0E945A
:1019F0008B0263E371E00E9472026FE271E00E9469
:101A0000720265E371E00E947202BE01675E7F4F61
:101A10000E948B0263E371E00E9472026AE271E04D
:101A20000E94720265E371E00E947202BE016D5E67
:101A30007F4F0E948B0263E371E00E94720264E2B6
:101A400071E00E94720265E371E00E947202BE01C1
:101A50006F5F7F4F0E948B0269E20E94B102FC011E
:101A6000448155816081718188E393E00E94440242
:101A7000CE0185960E940E03CE018B960E940E0326
:101A8000CE014F960E940E03CE0149960E940E038E
:101A9000CE0143960E940E03CE0101960E940E03D2
:101AA0001F5FFFEFEF1AFF0A26E0C20ED11C1630AF
:101AB00009F05ACF2DCC66E771E0CE0101960E9465
:101AC0004903CE0101960E945701182FCE010196BD
:101AD0000E940E03112309F473C068E28EE393E0C1
:101AE0000E949901AC014F5F5F4F6EE373E0CE013E
:101AF00049960E94710669E2CE0149960E949901B9
:101B00009C0140E050E0BE01675E7F4FCE014396EE
:101B10000E945E0363E371E0CE0101960E944903D7
:101B2000BE016F5F7F4FCE0143960E947F018C0103
:101B3000CE0101960E940E031127980140E050E06B
:101B4000BE016D5E7F4FCE0101960E945E03CE0105
:101B500001960E947401F62ECE0101960E940E039A
:101B6000A8014F5F5F4FBE016D5E7F4FCE010196B2
:101B70000E947106CE0101960E947401D62ECE01FC
:101B800001960E940E030F2D10E00C5C1D4FF80112
:101B90008081882309F43BC18F2D0E946606E82EC0
:101BA0008D1509F434C161E0D61260E0F80180813E
:101BB0000E9489058F2D0E946606E81235C127C153
:101BC00068E671E0CE0101960E944903CE010196BC
:101BD0000E945701182FCE0101960E940E03112377
:101BE00009F4A6C068E28EE393E00E949901AC017B
:101BF0004F5F5F4F6EE373E0CE0185960E947106E2
:101C000069E2CE0185960E9499019C0140E050E076
:101C1000BE016B5D7F4FCE014F960E945E0363E372
:101C200071E0CE0101960E944903BE016F5F7F4FB4
:101C3000CE014F960E947F018C01CE0101960E9439
:101C40000E031127980140E050E0BE01615E7F4F16
:101C5000CE0101960E945E03CE0101960E9474019E
:101C6000F62ECE0101960E940E03A8014F5F5F4F32
:101C7000BE01615E7F4FCE0149960E9471066F2DB5
:101C800070E0FB01EC5CFD4F8081811105C089E1B2
:101C900091E00E94E60041C086E0869F8001879F18
:101CA000100D112400511D4FB801CE0143960E9422
:101CB0004003BE01675E7F4FCE0143960E94B20192
:101CC00081112CC2BE01675E7F4FC8010E94F702DE
:101CD000B801CE0101960E944003BE016F5F7F4FA5
:101CE000CE0143960E94B2018111A5C10AC061E0F4
:101CF000E61260E08F2D0E94890561E08F2D0E9421
:101D0000B90586E191E00E94E600CE0101960E94AD
:101D10000E03CE0143960E940E03CE0149960E9407
:101D20000E03CE014F960E940E03CE018596F3C19D
:101D30006BE571E0CE0101960E944903CE01019648
:101D40000E945701182FCE0101960E940E03112305
:101D500009F475C068E28EE393E00E949901AC013A
:101D60004F5F5F4F6EE373E0CE0149960E947106AC
:101D700069E2CE0149960E9499019C0140E050E041
:101D8000BE01675E7F4FCE0143960E945E0363E310
:101D900071E0CE0101960E944903BE016F5F7F4F43
:101DA000CE0143960E947F017C01CE0101960E94E4
:101DB0000E03FF24970140E050E0BE016D5E7F4FAF
:101DC000CE0101960E945E03CE0101960E9474012D
:101DD000162FCE0101960E940E03A7014F5F5F4FA1
:101DE000BE016D5E7F4FCE0101960E947106CE014D
:101DF00001960E947401062FCE0101960E940E03E7
:101E0000E12FF0E0EC5CFD4F8081811103C089E19E
:101E100091E00CC08017D9F3008360E00E94B905FF
:101E200061E0802F0E94B90586E191E00E94E60002
:101E3000CE0143960E940E03CE0149966CC161E526
:101E400071E0CE0101960E944903CE0101960E94E5
:101E50005701182FCE0101960E940E03112309F499
:101E6000EDC068E28EE393E00E949901AC014F5F00
:101E70005F4F6EE373E0CE0185960E94710669E2C2
:101E8000CE0185960E9499019C0140E050E0BE0180
:101E90006B5D7F4FCE014F960E945E0363E371E05E
:101EA000CE0101960E944903BE016F5F7F4FCE01B4
:101EB0004F960E947F018C01CE0101960E940E0375
:101EC0001127980140E050E0BE01615E7F4FCE01D6
:101ED00001960E945E03CE0101960E947401F62EC7
:101EE000CE0101960E940E0362E372E0CE01499694
:101EF0000E944903A8014F5F5F4FBE01615E7F4FA3
:101F0000CE0101960E947106BE016F5F7F4FCE0128
:101F100049960E94E401CE0101960E940E0363E3FC
:101F200071E0CE0101960E944903BE016F5F7F4FB1
:101F3000CE0149960E947F018C01CE0101960E943C
:101F40000E031127980140E050E0BE01675E7F4F0D
:101F5000CE0143960E945E03A8014F5F5F4FBE0112
:101F6000675E7F4FCE0101960E947106BE016F5FD2
:101F70007F4FCE0149960E94E401CE0101960E9456
:101F80000E0363E371E0CE0101960E944903BE0196
:101F90006F5F7F4FCE0149960E947F018C01CE0179
:101FA00001960E940E039801332740E050E0BE01E5
:101FB000675E7F4FCE0101960E945E03CE010196BF
:101FC0000E947401E62ECE0101960E940E03E4E306
:101FD000F2E020E030E08191811124C0C9018C5CE5
:101FE0009D4F6C01FC01F08286E0829F8001839FFF
:101FF000100D112400511D4FBE016D5E7F4FC801B1
:102000000E94F702B801CE0101960E944003BE0172
:102010006D5E7F4FCE0101960E94B201811167CEA5
:10202000F60108C02F5F3F4F26303105A1F6109210
:10203000340274C0108289E191E065CE64E471E0FD
:10204000CE0101960E944903CE0101960E945701DC
:10205000182FCE0101960E940E03112309F447C0E8
:1020600068E28EE393E00E949901AC014F5F5F4FFD
:102070006EE373E0CE0143960E94710669E2CE01E1
:1020800043960E9499019C0140E050E0BE016D5EC4
:102090007F4FCE0101960E945E03CE0101960E9401
:1020A000740170E0FB01EC5CFD4F1081111103C065
:1020B00089E191E013C0108226E0269FC001279F8E
:1020C000900D112462E372E080519D4F0E94E00266
:1020D00060E0812F0E94B90586E191E00E94E60050
:1020E000CE0101960E940E03CE01439614C064E116
:1020F00072E0CE0101960E9449036EE373E0CE01C7
:1021000001960E948B026EE172E00E9472020E94B0
:10211000CD00CE0101960E940E0303C989E191E032
:102120000E94E600F6CDCF93DF93109256021092F4
:10213000550288EE93E0A0E0B0E0809357029093C0
:102140005802A0935902B0935A0286EE91E0909300
:1021500054028093530285EC90E090936002809348
:102160005F0284EC90E0909362028093610280ECC5
:1021700090E0909364028093630281EC90E09093EE
:1021800066028093650282EC90E0909368028093EF
:10219000670286EC90E090936A0280936902109245
:1021A0006C0210926D0210926E0210926F0262E346
:1021B00072E08EE393E00E94490362E372E088E3F9
:1021C00093E00E944903C4E1D3E062E372E0CE01F0
:1021D0000E944903269683E0C833D807B1F7C0EFC1
:1021E000D2E062E372E0CE010E944903269683E0CA
:1021F000C431D807B1F7DF91CF910895CF93DF9322
:10220000C4E1D3E02697CE010E940E0382E0C03FD6
:10221000D807C1F7C8E3D3E02697CE010E940E038A
:1022200083E0C431D807C1F788E393E00E940E032E
:102230008EE393E0DF91CF910C940E031F93FC018A
:1022400099278827BC01E89411911032E9F31930DD
:1022500010F01E30C8F31B3251F01D3249F468945F
:1022600006C00E945011610F711D811D911D1191B9
:1022700010531A30B0F33EF49095809570956195A7
:102280007F4F8F4F9F4F1F910895BB274A3031F4E6
:10229000992322F4BDE2909581959F4F0C94711182
:1022A000592F482F372F262F660F771F881F991F0A
:1022B000660F771F881F991F620F731F841F951F5A
:1022C000660F771F881F991F08954532510520F426
:1022D000423010F00C947011FB011082CB01089574
:1022E000BB27FB015527AA27880F991FAA1FA417F0
:1022F00010F0A41B83955051B9F7A05DAA3308F0E4
:10230000A95DA193009779F7B111B1931192CB0117
:102310000C94931191110C94A311803219F08950EF
:102320008550C8F70895DC01FC01672F7191772370
:10233000E1F7329704C07C916D9370836291AE1780
:10234000BF07C8F30895992788270895262FF9997C
:10235000FECF1FBA92BD81BD20BD0FB6F894FA9A88
:10236000F99A0FBE019608952F923F924F925F9275
:102370006F927F928F929F92AF92BF92CF92DF9295
:10238000EF92FF920F931F93CF93DF93CDB7DEB7FA
:10239000CA1BDB0B0FB6F894DEBF0FBECDBF09948E
:1023A0002A88398848885F846E847D848C849B84E5
:1023B000AA84B984C884DF80EE80FD800C811B81F3
:1023C000AA81B981CE0FD11D0FB6F894DEBF0FBE22
:1023D000CDBFED010895EE0FFF1F0590F491E02DA4
:1023E0000994CF93DF938230910510F482E090E05E
:1023F000E0914F03F091500320E030E0C0E0D0E0E6
:10240000309711F14081518148175907C0F04817A2
:10241000590761F482819381209719F09B838A8305
:102420002BC09093500380934F0326C02115310594
:1024300019F04217530718F49A01BE01DF01EF01AA
:102440000280F381E02DDCCF2115310509F1281B35
:10245000390B2430310590F412968D919C9113978D
:102460006115710521F0FB019383828304C0909371
:10247000500380934F03FD01329644C0FD01E20FEB
:10248000F31F81939193225031092D933C933AC0CD
:1024900020914D0330914E03232B41F420910201F2
:1024A0003091030130934E0320934D03209100019E
:1024B000309101012115310541F42DB73EB740910E
:1024C000040150910501241B350BE0914D03F0915F
:1024D0004E03E217F307A0F42E1B3F0B2817390712
:1024E00078F0AC014E5F5F4F2417350748F04E0F70
:1024F0005F1F50934E0340934D038193919302C00D
:10250000E0E0F0E0CF01DF91CF9108950F931F93AA
:10251000CF93DF93009709F48CC0FC0132971382AC
:10252000128200914F03109150030115110581F49F
:1025300020813181820F931F20914D0330914E03F2
:102540002817390779F5F0934E03E0934D0371C0D6
:10255000D80140E050E0AE17BF0750F412962D911D
:102560003C911397AD012115310509F1D901F3CF44
:102570009D01DA013383228360817181860F971F69
:102580008217930769F4EC0128813981260F371FE0
:102590002E5F3F4F318320838A819B819383828387
:1025A000452B29F4F0935003E0934F0342C0139658
:1025B000FC93EE931297ED01499159919E01240FDE
:1025C000351FE217F30771F480819181840F951F05
:1025D000029611969C938E938281938113969C937D
:1025E0008E931297E0E0F0E0D80112968D919C91C5
:1025F0001397009719F0F8018C01F6CF8D919C91FB
:1026000098012E5F3F4F820F931F20914D03309111
:102610004E032817390769F4309729F410925003B4
:1026200010924F0302C01382128210934E03009344
:102630004D03DF91CF911F910F910895A0E0B0E07D
:10264000E4E2F3E10C94B811EC01009721F4CB0122
:102650000E94F111B8C0FC01E60FF71F9C01225047
:102660003109E217F30708F4ACC0D9010D911C91B0
:10267000119706171707B0F00530110508F49FC031
:10268000C80104978617970708F499C002501109EA
:10269000061B170B019311936D937C93CF010E943E
:1026A00086128DC05B01A01AB10A4C01800E911EEA
:1026B000A0914F03B091500340E050E0E12CF12C89
:1026C000109709F44AC0A815B905D1F56D907C9012
:1026D0001197630182E0C80ED11CCA14DB0480F19B
:1026E000A3014A195B096A0182E0C80ED11C129647
:1026F000BC9012971396AC91B5E0CB16D10440F084
:10270000B282A38351834083D9016D937C930AC025
:102710000E5F1F4FC301800F911FF90191838083CA
:10272000EB2DFA2FE114F10431F0D7011396FC934D
:10273000EE93129744C0F0935003E0934F033FC0D1
:102740008D919C9111974817590708F4AC017D01B0
:1027500012960D90BC91A02DB3CF80914D03909116
:102760004E0388159905E1F446175707C8F4809180
:10277000000190910101009741F48DB79EB74091FF
:10278000040150910501841B950BE817F907C8F463
:10279000F0934E03E0934D03F901718360830FC002
:1027A000CB010E94F1117C01009759F0A801BE01F4
:1027B0000E94F513CE010E948612C70104C0CE010B
:1027C00002C080E090E0CDB7DEB7EEE00C94D4110B
:1027D00081E090E0F8940C94411491110895815493
:1027E0008A5108F4805E855A0895FB01DC0102C01D
:1027F00001900D9241505040D8F70895FC0181910D
:10280000861721F08823D9F7992708953197CF01AA
:102810000895FB01DC018D91019080190110D9F31D
:10282000990B0895FB01DC0101900D920020E1F766
:102830000895FB01DC014150504030F08D91019032
:10284000801919F40020B9F7881B990B0895FB0132
:1028500051915523A9F0BF01DC014D91451741115C
:10286000E1F759F4CD010190002049F04D91401558
:102870004111C9F3FB014111EFCF81E090E00197D5
:10288000089510E0C2E6D0E004C0FE010E94EB1102
:0C2890002196C336D107C9F7F894FFCF9A
:10289C0000005103800053656E736F7200537769AB
:1028AC007463686573004F4B004552524F5200548D
:1028BC00797065005374617465004E616D650050EC
:1028CC00696E002C00203D200049640053656E7336
:1028DC006F72730044656C657465537769746368D3
:1028EC00004164645377697463680053657453776B
:1028FC006974636850696E005365745377697463C7
:10290C00684E616D650053657453776974636853E1
:10291C007461746500476574416C6C5377697463BA
:10292C006865730044656C65746553656E736F728E
:10293C000041646453656E736F7200536574536524
:10294C006E736F72547970650053657453656E7352
:10295C006F7250696E0053657453656E736F724E6F
:10296C00616D6500476574416C6C53656E736F7275
:10297C00730000000000FD038E00C603A403B8031F
:10298C004404446F6F722053656E736F720050492C
:10299C00522053656E736F72004C656420537769D7
:1029AC0074636800436F6D6D616E6420270027208F
:1029BC006E6F74207265636F676E697A65642E0042
:0429CC000D0A0000F0
:107E0000112484B714BE81FFF0D085E080938100F7
:107E100082E08093C00088E18093C10086E0809377
:107E2000C20080E18093C4008EE0C9D0259A86E02C
:107E300020E33CEF91E0309385002093840096BBD3
:107E4000B09BFECF1D9AA8958150A9F7CC24DD24C4
:107E500088248394B5E0AB2EA1E19A2EF3E0BF2EE7
:107E6000A2D0813461F49FD0082FAFD0023811F036
:107E7000013811F484E001C083E08DD089C08234E0
:107E800011F484E103C0853419F485E0A6D080C0E4
:107E9000853579F488D0E82EFF2485D0082F10E0AE
:107EA000102F00270E291F29000F111F8ED06801E7
:107EB0006FC0863521F484E090D080E0DECF843638
:107EC00009F040C070D06FD0082F6DD080E0C81688
:107ED00080E7D80618F4F601B7BEE895C0E0D1E017
:107EE00062D089930C17E1F7F0E0CF16F0E7DF06D8
:107EF00018F0F601B7BEE89568D007B600FCFDCFD4
:107F0000A601A0E0B1E02C9130E011968C91119780
:107F100090E0982F8827822B932B1296FA010C0160
:107F200087BEE89511244E5F5F4FF1E0A038BF0790
:107F300051F7F601A7BEE89507B600FCFDCF97BE46
:107F4000E89526C08437B1F42ED02DD0F82E2BD052
:107F50003CD0F601EF2C8F010F5F1F4F84911BD097
:107F6000EA94F801C1F70894C11CD11CFA94CF0C13
:107F7000D11C0EC0853739F428D08EE10CD085E9AC
:107F80000AD08FE07ACF813511F488E018D01DD067
:107F900080E101D065CF982F8091C00085FFFCCF94
:107FA0009093C60008958091C00087FFFCCF809118
:107FB000C00084FD01C0A8958091C6000895E0E648
:107FC000F0E098E1908380830895EDDF803219F02E
:107FD00088E0F5DFFFCF84E1DECF1F93182FE3DFCA
:107FE0001150E9F7F2DF1F91089580E0E8DFEE27F6
:047FF000FF270994CA
:027FFE00040479
:0400000300007E007B
:00000001FF